{
  "contractName": "ERC721Shares",
  "abi": [
    {
      "inputs": [
        {
          "internalType": "string",
          "name": "_name",
          "type": "string"
        },
        {
          "internalType": "string",
          "name": "_symbol",
          "type": "string"
        },
        {
          "internalType": "contract ERC721Wrapper",
          "name": "_wrapper",
          "type": "address"
        },
        {
          "internalType": "uint256",
          "name": "_tokenId",
          "type": "uint256"
        },
        {
          "internalType": "address",
          "name": "_from",
          "type": "address"
        },
        {
          "internalType": "uint256",
          "name": "_sharesCount",
          "type": "uint256"
        },
        {
          "internalType": "uint8",
          "name": "_decimals",
          "type": "uint8"
        },
        {
          "internalType": "uint256",
          "name": "_sharePrice",
          "type": "uint256"
        },
        {
          "internalType": "contract IERC20",
          "name": "_paymentToken",
          "type": "address"
        },
        {
          "internalType": "bool",
          "name": "_remnant",
          "type": "bool"
        }
      ],
      "stateMutability": "nonpayable",
      "type": "constructor"
    },
    {
      "anonymous": false,
      "inputs": [
        {
          "indexed": true,
          "internalType": "address",
          "name": "owner",
          "type": "address"
        },
        {
          "indexed": true,
          "internalType": "address",
          "name": "spender",
          "type": "address"
        },
        {
          "indexed": false,
          "internalType": "uint256",
          "name": "value",
          "type": "uint256"
        }
      ],
      "name": "Approval",
      "type": "event"
    },
    {
      "anonymous": false,
      "inputs": [
        {
          "indexed": true,
          "internalType": "address",
          "name": "from",
          "type": "address"
        },
        {
          "indexed": true,
          "internalType": "address",
          "name": "to",
          "type": "address"
        },
        {
          "indexed": false,
          "internalType": "uint256",
          "name": "value",
          "type": "uint256"
        }
      ],
      "name": "Transfer",
      "type": "event"
    },
    {
      "inputs": [
        {
          "internalType": "address",
          "name": "owner",
          "type": "address"
        },
        {
          "internalType": "address",
          "name": "spender",
          "type": "address"
        }
      ],
      "name": "allowance",
      "outputs": [
        {
          "internalType": "uint256",
          "name": "",
          "type": "uint256"
        }
      ],
      "stateMutability": "view",
      "type": "function"
    },
    {
      "inputs": [
        {
          "internalType": "address",
          "name": "spender",
          "type": "address"
        },
        {
          "internalType": "uint256",
          "name": "amount",
          "type": "uint256"
        }
      ],
      "name": "approve",
      "outputs": [
        {
          "internalType": "bool",
          "name": "",
          "type": "bool"
        }
      ],
      "stateMutability": "nonpayable",
      "type": "function"
    },
    {
      "inputs": [
        {
          "internalType": "address",
          "name": "account",
          "type": "address"
        }
      ],
      "name": "balanceOf",
      "outputs": [
        {
          "internalType": "uint256",
          "name": "",
          "type": "uint256"
        }
      ],
      "stateMutability": "view",
      "type": "function"
    },
    {
      "inputs": [],
      "name": "decimals",
      "outputs": [
        {
          "internalType": "uint8",
          "name": "",
          "type": "uint8"
        }
      ],
      "stateMutability": "view",
      "type": "function"
    },
    {
      "inputs": [
        {
          "internalType": "address",
          "name": "spender",
          "type": "address"
        },
        {
          "internalType": "uint256",
          "name": "subtractedValue",
          "type": "uint256"
        }
      ],
      "name": "decreaseAllowance",
      "outputs": [
        {
          "internalType": "bool",
          "name": "",
          "type": "bool"
        }
      ],
      "stateMutability": "nonpayable",
      "type": "function"
    },
    {
      "inputs": [
        {
          "internalType": "address",
          "name": "spender",
          "type": "address"
        },
        {
          "internalType": "uint256",
          "name": "addedValue",
          "type": "uint256"
        }
      ],
      "name": "increaseAllowance",
      "outputs": [
        {
          "internalType": "bool",
          "name": "",
          "type": "bool"
        }
      ],
      "stateMutability": "nonpayable",
      "type": "function"
    },
    {
      "inputs": [],
      "name": "name",
      "outputs": [
        {
          "internalType": "string",
          "name": "",
          "type": "string"
        }
      ],
      "stateMutability": "view",
      "type": "function"
    },
    {
      "inputs": [
        {
          "internalType": "address",
          "name": "",
          "type": "address"
        },
        {
          "internalType": "address",
          "name": "",
          "type": "address"
        },
        {
          "internalType": "uint256",
          "name": "",
          "type": "uint256"
        },
        {
          "internalType": "bytes",
          "name": "",
          "type": "bytes"
        }
      ],
      "name": "onERC721Received",
      "outputs": [
        {
          "internalType": "bytes4",
          "name": "",
          "type": "bytes4"
        }
      ],
      "stateMutability": "nonpayable",
      "type": "function"
    },
    {
      "inputs": [],
      "name": "paymentToken",
      "outputs": [
        {
          "internalType": "contract IERC20",
          "name": "",
          "type": "address"
        }
      ],
      "stateMutability": "view",
      "type": "function"
    },
    {
      "inputs": [],
      "name": "released",
      "outputs": [
        {
          "internalType": "bool",
          "name": "",
          "type": "bool"
        }
      ],
      "stateMutability": "view",
      "type": "function"
    },
    {
      "inputs": [],
      "name": "remnant",
      "outputs": [
        {
          "internalType": "bool",
          "name": "",
          "type": "bool"
        }
      ],
      "stateMutability": "view",
      "type": "function"
    },
    {
      "inputs": [],
      "name": "sharePrice",
      "outputs": [
        {
          "internalType": "uint256",
          "name": "",
          "type": "uint256"
        }
      ],
      "stateMutability": "view",
      "type": "function"
    },
    {
      "inputs": [],
      "name": "sharesCount",
      "outputs": [
        {
          "internalType": "uint256",
          "name": "",
          "type": "uint256"
        }
      ],
      "stateMutability": "view",
      "type": "function"
    },
    {
      "inputs": [],
      "name": "symbol",
      "outputs": [
        {
          "internalType": "string",
          "name": "",
          "type": "string"
        }
      ],
      "stateMutability": "view",
      "type": "function"
    },
    {
      "inputs": [],
      "name": "tokenId",
      "outputs": [
        {
          "internalType": "uint256",
          "name": "",
          "type": "uint256"
        }
      ],
      "stateMutability": "view",
      "type": "function"
    },
    {
      "inputs": [],
      "name": "totalSupply",
      "outputs": [
        {
          "internalType": "uint256",
          "name": "",
          "type": "uint256"
        }
      ],
      "stateMutability": "view",
      "type": "function"
    },
    {
      "inputs": [
        {
          "internalType": "address",
          "name": "recipient",
          "type": "address"
        },
        {
          "internalType": "uint256",
          "name": "amount",
          "type": "uint256"
        }
      ],
      "name": "transfer",
      "outputs": [
        {
          "internalType": "bool",
          "name": "",
          "type": "bool"
        }
      ],
      "stateMutability": "nonpayable",
      "type": "function"
    },
    {
      "inputs": [
        {
          "internalType": "address",
          "name": "sender",
          "type": "address"
        },
        {
          "internalType": "address",
          "name": "recipient",
          "type": "address"
        },
        {
          "internalType": "uint256",
          "name": "amount",
          "type": "uint256"
        }
      ],
      "name": "transferFrom",
      "outputs": [
        {
          "internalType": "bool",
          "name": "",
          "type": "bool"
        }
      ],
      "stateMutability": "nonpayable",
      "type": "function"
    },
    {
      "inputs": [],
      "name": "wrapper",
      "outputs": [
        {
          "internalType": "contract ERC721Wrapper",
          "name": "",
          "type": "address"
        }
      ],
      "stateMutability": "view",
      "type": "function"
    },
    {
      "inputs": [],
      "name": "exitPrice",
      "outputs": [
        {
          "internalType": "uint256",
          "name": "_exitPrice",
          "type": "uint256"
        }
      ],
      "stateMutability": "view",
      "type": "function"
    },
    {
      "inputs": [
        {
          "internalType": "address",
          "name": "_from",
          "type": "address"
        }
      ],
      "name": "redeemAmountOf",
      "outputs": [
        {
          "internalType": "uint256",
          "name": "_redeemAmount",
          "type": "uint256"
        }
      ],
      "stateMutability": "view",
      "type": "function"
    },
    {
      "inputs": [],
      "name": "vaultBalance",
      "outputs": [
        {
          "internalType": "uint256",
          "name": "_vaultBalance",
          "type": "uint256"
        }
      ],
      "stateMutability": "view",
      "type": "function"
    },
    {
      "inputs": [
        {
          "internalType": "address",
          "name": "_from",
          "type": "address"
        }
      ],
      "name": "vaultBalanceOf",
      "outputs": [
        {
          "internalType": "uint256",
          "name": "_vaultBalanceOf",
          "type": "uint256"
        }
      ],
      "stateMutability": "view",
      "type": "function"
    },
    {
      "inputs": [],
      "name": "redeem",
      "outputs": [],
      "stateMutability": "payable",
      "type": "function"
    },
    {
      "inputs": [],
      "name": "claim",
      "outputs": [],
      "stateMutability": "nonpayable",
      "type": "function"
    }
  ],
  "bytecode": "0x60806040523480156200001157600080fd5b5060405162002bf038038062002bf083398181016040526101408110156200003857600080fd5b81019080805160405193929190846401000000008211156200005957600080fd5b838201915060208201858111156200007057600080fd5b82518660018202830111640100000000821117156200008e57600080fd5b8083526020830192505050908051906020019080838360005b83811015620000c4578082015181840152602081019050620000a7565b50505050905090810190601f168015620000f25780820380516001836020036101000a031916815260200191505b50604052602001805160405193929190846401000000008211156200011657600080fd5b838201915060208201858111156200012d57600080fd5b82518660018202830111640100000000821117156200014b57600080fd5b8083526020830192505050908051906020019080838360005b838110156200018157808201518184015260208101905062000164565b50505050905090810190601f168015620001af5780820380516001836020036101000a031916815260200191505b5060405260200180519060200190929190805190602001909291908051906020019092919080519060200190929190805190602001909291908051906020019092919080519060200190929190805190602001909291905050508989816003908051906020019062000223929190620005e4565b5080600490805190602001906200023c929190620005e4565b506012600560006101000a81548160ff021916908360ff160217905550505087600560016101000a81548173ffffffffffffffffffffffffffffffffffffffff021916908373ffffffffffffffffffffffffffffffffffffffff16021790555086600681905550846007819055508260088190555081600960006101000a81548173ffffffffffffffffffffffffffffffffffffffff021916908373ffffffffffffffffffffffffffffffffffffffff16021790555080600960146101000a81548160ff0219169083151502179055506000600960156101000a81548160ff02191690831515021790555062000338846200035a60201b60201c565b6200034a86866200037860201b60201c565b505050505050505050506200068a565b80600560006101000a81548160ff021916908360ff16021790555050565b600073ffffffffffffffffffffffffffffffffffffffff168273ffffffffffffffffffffffffffffffffffffffff1614156200041c576040517f08c379a000000000000000000000000000000000000000000000000000000000815260040180806020018281038252601f8152602001807f45524332303a206d696e7420746f20746865207a65726f20616464726573730081525060200191505060405180910390fd5b62000430600083836200055660201b60201c565b6200044c816002546200055b60201b620016dc1790919060201c565b600281905550620004aa816000808573ffffffffffffffffffffffffffffffffffffffff1673ffffffffffffffffffffffffffffffffffffffff168152602001908152602001600020546200055b60201b620016dc1790919060201c565b6000808473ffffffffffffffffffffffffffffffffffffffff1673ffffffffffffffffffffffffffffffffffffffff168152602001908152602001600020819055508173ffffffffffffffffffffffffffffffffffffffff16600073ffffffffffffffffffffffffffffffffffffffff167fddf252ad1be2c89b69c2b068fc378daa952ba7f163c4a11628f55a4df523b3ef836040518082815260200191505060405180910390a35050565b505050565b600080828401905083811015620005da576040517f08c379a000000000000000000000000000000000000000000000000000000000815260040180806020018281038252601b8152602001807f536166654d6174683a206164646974696f6e206f766572666c6f77000000000081525060200191505060405180910390fd5b8091505092915050565b828054600181600116156101000203166002900490600052602060002090601f016020900481019282601f106200062757805160ff191683800117855562000658565b8280016001018555821562000658579182015b82811115620006575782518255916020019190600101906200063a565b5b5090506200066791906200066b565b5090565b5b80821115620006865760008160009055506001016200066c565b5090565b612556806200069a6000396000f3fe6080604052600436106101665760003560e01c806370a08231116100d1578063a9059cbb1161008a578063b9c6b12b11610064578063b9c6b12b1461091f578063be040fb01461094a578063c67663c014610954578063dd62ed3e1461098157610166565b8063a9059cbb14610808578063ac210cc714610879578063b73b8c39146108ba57610166565b806370a082311461061f578063872697291461068457806395d89b41146106af578063961325211461073f5780639d555cfa1461076c578063a457c2d71461079757610166565b806323b872dd1161012357806323b872dd146104325780633013ce29146104c3578063313ce56714610504578063313f85e81461053257806339509351146105975780634e71d92d1461060857610166565b806306fdde031461016b578063095ea7b3146101fb5780630bf6cc081461026c578063150b7a021461029757806317d70f7c146103dc57806318160ddd14610407575b600080fd5b34801561017757600080fd5b50610180610a06565b6040518080602001828103825283818151815260200191508051906020019080838360005b838110156101c05780820151818401526020810190506101a5565b50505050905090810190601f1680156101ed5780820380516001836020036101000a031916815260200191505b509250505060405180910390f35b34801561020757600080fd5b506102546004803603604081101561021e57600080fd5b81019080803573ffffffffffffffffffffffffffffffffffffffff16906020019092919080359060200190929190505050610aa8565b60405180821515815260200191505060405180910390f35b34801561027857600080fd5b50610281610ac6565b6040518082815260200191505060405180910390f35b3480156102a357600080fd5b506103a7600480360360808110156102ba57600080fd5b81019080803573ffffffffffffffffffffffffffffffffffffffff169060200190929190803573ffffffffffffffffffffffffffffffffffffffff169060200190929190803590602001909291908035906020019064010000000081111561032157600080fd5b82018360208201111561033357600080fd5b8035906020019184600183028401116401000000008311171561035557600080fd5b91908080601f016020809104026020016040519081016040528093929190818152602001838380828437600081840152601f19601f820116905080830192505050505050509192919290505050610af2565b60405180827bffffffffffffffffffffffffffffffffffffffffffffffffffffffff1916815260200191505060405180910390f35b3480156103e857600080fd5b506103f1610b06565b6040518082815260200191505060405180910390f35b34801561041357600080fd5b5061041c610b0c565b6040518082815260200191505060405180910390f35b34801561043e57600080fd5b506104ab6004803603606081101561045557600080fd5b81019080803573ffffffffffffffffffffffffffffffffffffffff169060200190929190803573ffffffffffffffffffffffffffffffffffffffff16906020019092919080359060200190929190505050610b16565b60405180821515815260200191505060405180910390f35b3480156104cf57600080fd5b506104d8610bef565b604051808273ffffffffffffffffffffffffffffffffffffffff16815260200191505060405180910390f35b34801561051057600080fd5b50610519610c15565b604051808260ff16815260200191505060405180910390f35b34801561053e57600080fd5b506105816004803603602081101561055557600080fd5b81019080803573ffffffffffffffffffffffffffffffffffffffff169060200190929190505050610c2c565b6040518082815260200191505060405180910390f35b3480156105a357600080fd5b506105f0600480360360408110156105ba57600080fd5b81019080803573ffffffffffffffffffffffffffffffffffffffff16906020019092919080359060200190929190505050610c66565b60405180821515815260200191505060405180910390f35b34801561061457600080fd5b5061061d610d19565b005b34801561062b57600080fd5b5061066e6004803603602081101561064257600080fd5b81019080803573ffffffffffffffffffffffffffffffffffffffff169060200190929190505050610f26565b6040518082815260200191505060405180910390f35b34801561069057600080fd5b50610699610f6e565b6040518082815260200191505060405180910390f35b3480156106bb57600080fd5b506106c4610f74565b6040518080602001828103825283818151815260200191508051906020019080838360005b838110156107045780820151818401526020810190506106e9565b50505050905090810190601f1680156107315780820380516001836020036101000a031916815260200191505b509250505060405180910390f35b34801561074b57600080fd5b50610754611016565b60405180821515815260200191505060405180910390f35b34801561077857600080fd5b50610781611029565b6040518082815260200191505060405180910390f35b3480156107a357600080fd5b506107f0600480360360408110156107ba57600080fd5b81019080803573ffffffffffffffffffffffffffffffffffffffff1690602001909291908035906020019092919050505061102f565b60405180821515815260200191505060405180910390f35b34801561081457600080fd5b506108616004803603604081101561082b57600080fd5b81019080803573ffffffffffffffffffffffffffffffffffffffff169060200190929190803590602001909291905050506110fc565b60405180821515815260200191505060405180910390f35b34801561088557600080fd5b5061088e61111a565b604051808273ffffffffffffffffffffffffffffffffffffffff16815260200191505060405180910390f35b3480156108c657600080fd5b50610909600480360360208110156108dd57600080fd5b81019080803573ffffffffffffffffffffffffffffffffffffffff169060200190929190505050611140565b6040518082815260200191505060405180910390f35b34801561092b57600080fd5b50610934611185565b6040518082815260200191505060405180910390f35b610952611193565b005b34801561096057600080fd5b50610969611642565b60405180821515815260200191505060405180910390f35b34801561098d57600080fd5b506109f0600480360360408110156109a457600080fd5b81019080803573ffffffffffffffffffffffffffffffffffffffff169060200190929190803573ffffffffffffffffffffffffffffffffffffffff169060200190929190505050611655565b6040518082815260200191505060405180910390f35b606060038054600181600116156101000203166002900480601f016020809104026020016040519081016040528092919081815260200182805460018160011615610100020316600290048015610a9e5780601f10610a7357610100808354040283529160200191610a9e565b820191906000526020600020905b815481529060010190602001808311610a8157829003601f168201915b5050505050905090565b6000610abc610ab5611764565b848461176c565b6001905092915050565b6000600960159054906101000a900460ff16610ae55760009050610aef565b6008546007540290505b90565b600063150b7a0260e01b9050949350505050565b60065481565b6000600254905090565b6000610b23848484611963565b610be484610b2f611764565b610bdf8560405180606001604052806028815260200161244060289139600160008b73ffffffffffffffffffffffffffffffffffffffff1673ffffffffffffffffffffffffffffffffffffffff1681526020019081526020016000206000610b95611764565b73ffffffffffffffffffffffffffffffffffffffff1673ffffffffffffffffffffffffffffffffffffffff16815260200190815260200160002054611c249092919063ffffffff16565b61176c565b600190509392505050565b600960009054906101000a900473ffffffffffffffffffffffffffffffffffffffff1681565b6000600560009054906101000a900460ff16905090565b6000600960159054906101000a900460ff16610c4b5760009050610c61565b6000610c5683610f26565b905060085481029150505b919050565b6000610d0f610c73611764565b84610d0a8560016000610c84611764565b73ffffffffffffffffffffffffffffffffffffffff1673ffffffffffffffffffffffffffffffffffffffff16815260200190815260200160002060008973ffffffffffffffffffffffffffffffffffffffff1673ffffffffffffffffffffffffffffffffffffffff168152602001908152602001600020546116dc90919063ffffffff16565b61176c565b6001905092915050565b600960159054906101000a900460ff16610d3257600080fd5b60003390506000610d4282610f26565b905060008111610d5157600080fd5b610d5b8282611ce4565b6000610d6683610c2c565b905060008111610d7257fe5b600073ffffffffffffffffffffffffffffffffffffffff16600960009054906101000a900473ffffffffffffffffffffffffffffffffffffffff1673ffffffffffffffffffffffffffffffffffffffff161415610e15578273ffffffffffffffffffffffffffffffffffffffff166108fc829081150290604051600060405180830381858888f19350505050158015610e0f573d6000803e3d6000fd5b50610e63565b610e628382600960009054906101000a900473ffffffffffffffffffffffffffffffffffffffff1673ffffffffffffffffffffffffffffffffffffffff16611ea89092919063ffffffff16565b5b6000610e6d610b0c565b90506000811415610f2057600560019054906101000a900473ffffffffffffffffffffffffffffffffffffffff1673ffffffffffffffffffffffffffffffffffffffff166320ae1e366006546040518263ffffffff1660e01b815260040180828152602001915050600060405180830381600087803b158015610eef57600080fd5b505af1158015610f03573d6000803e3d6000fd5b505050508373ffffffffffffffffffffffffffffffffffffffff16ff5b50505050565b60008060008373ffffffffffffffffffffffffffffffffffffffff1673ffffffffffffffffffffffffffffffffffffffff168152602001908152602001600020549050919050565b60085481565b606060048054600181600116156101000203166002900480601f01602080910402602001604051908101604052809291908181526020018280546001816001161561010002031660029004801561100c5780601f10610fe15761010080835404028352916020019161100c565b820191906000526020600020905b815481529060010190602001808311610fef57829003601f168201915b5050505050905090565b600960159054906101000a900460ff1681565b60075481565b60006110f261103c611764565b846110ed856040518060600160405280602581526020016124fc6025913960016000611066611764565b73ffffffffffffffffffffffffffffffffffffffff1673ffffffffffffffffffffffffffffffffffffffff16815260200190815260200160002060008a73ffffffffffffffffffffffffffffffffffffffff1673ffffffffffffffffffffffffffffffffffffffff16815260200190815260200160002054611c249092919063ffffffff16565b61176c565b6001905092915050565b6000611110611109611764565b8484611963565b6001905092915050565b600560019054906101000a900473ffffffffffffffffffffffffffffffffffffffff1681565b6000600960159054906101000a900460ff161561115c57600080fd5b600061116783610f26565b90506000611173611185565b90506008548202810392505050919050565b600060085460075402905090565b600960159054906101000a900460ff16156111ad57600080fd5b6000339050600034905060006111c283611140565b9050600073ffffffffffffffffffffffffffffffffffffffff16600960009054906101000a900473ffffffffffffffffffffffffffffffffffffffff1673ffffffffffffffffffffffffffffffffffffffff161415611286578082101561122857600080fd5b600081830390506000811115611280578373ffffffffffffffffffffffffffffffffffffffff166108fc829081150290604051600060405180830381858888f1935050505015801561127e573d6000803e3d6000fd5b505b50611331565b60008211156112d7578273ffffffffffffffffffffffffffffffffffffffff166108fc839081150290604051600060405180830381858888f193505050501580156112d5573d6000803e3d6000fd5b505b60008111156113305761132f833083600960009054906101000a900473ffffffffffffffffffffffffffffffffffffffff1673ffffffffffffffffffffffffffffffffffffffff16611f4a909392919063ffffffff16565b5b5b6001600960156101000a81548160ff021916908315150217905550600061135784610f26565b9050600081111561136d5761136c8482611ce4565b5b600560019054906101000a900473ffffffffffffffffffffffffffffffffffffffff1673ffffffffffffffffffffffffffffffffffffffff1663290bfdc585600654600960149054906101000a900460ff166040518463ffffffff1660e01b8152600401808473ffffffffffffffffffffffffffffffffffffffff16815260200183815260200182151581526020019350505050600060405180830381600087803b15801561141b57600080fd5b505af115801561142f573d6000803e3d6000fd5b50505050600560019054906101000a900473ffffffffffffffffffffffffffffffffffffffff1673ffffffffffffffffffffffffffffffffffffffff1663d4b839926040518163ffffffff1660e01b815260040160206040518083038186803b15801561149b57600080fd5b505afa1580156114af573d6000803e3d6000fd5b505050506040513d60208110156114c557600080fd5b810190808051906020019092919050505073ffffffffffffffffffffffffffffffffffffffff166342842e0e30866006546040518463ffffffff1660e01b8152600401808473ffffffffffffffffffffffffffffffffffffffff1681526020018373ffffffffffffffffffffffffffffffffffffffff1681526020018281526020019350505050600060405180830381600087803b15801561156657600080fd5b505af115801561157a573d6000803e3d6000fd5b505050506000611588610b0c565b9050600081141561163b57600560019054906101000a900473ffffffffffffffffffffffffffffffffffffffff1673ffffffffffffffffffffffffffffffffffffffff166320ae1e366006546040518263ffffffff1660e01b815260040180828152602001915050600060405180830381600087803b15801561160a57600080fd5b505af115801561161e573d6000803e3d6000fd5b505050508473ffffffffffffffffffffffffffffffffffffffff16ff5b5050505050565b600960149054906101000a900460ff1681565b6000600160008473ffffffffffffffffffffffffffffffffffffffff1673ffffffffffffffffffffffffffffffffffffffff16815260200190815260200160002060008373ffffffffffffffffffffffffffffffffffffffff1673ffffffffffffffffffffffffffffffffffffffff16815260200190815260200160002054905092915050565b60008082840190508381101561175a576040517f08c379a000000000000000000000000000000000000000000000000000000000815260040180806020018281038252601b8152602001807f536166654d6174683a206164646974696f6e206f766572666c6f77000000000081525060200191505060405180910390fd5b8091505092915050565b600033905090565b600073ffffffffffffffffffffffffffffffffffffffff168373ffffffffffffffffffffffffffffffffffffffff1614156117f2576040517f08c379a00000000000000000000000000000000000000000000000000000000081526004018080602001828103825260248152602001806124ae6024913960400191505060405180910390fd5b600073ffffffffffffffffffffffffffffffffffffffff168273ffffffffffffffffffffffffffffffffffffffff161415611878576040517f08c379a00000000000000000000000000000000000000000000000000000000081526004018080602001828103825260228152602001806123f86022913960400191505060405180910390fd5b80600160008573ffffffffffffffffffffffffffffffffffffffff1673ffffffffffffffffffffffffffffffffffffffff16815260200190815260200160002060008473ffffffffffffffffffffffffffffffffffffffff1673ffffffffffffffffffffffffffffffffffffffff168152602001908152602001600020819055508173ffffffffffffffffffffffffffffffffffffffff168373ffffffffffffffffffffffffffffffffffffffff167f8c5be1e5ebec7d5bd14f71427d1e84f3dd0314c0f7b2291e5b200ac8c7c3b925836040518082815260200191505060405180910390a3505050565b600073ffffffffffffffffffffffffffffffffffffffff168373ffffffffffffffffffffffffffffffffffffffff1614156119e9576040517f08c379a00000000000000000000000000000000000000000000000000000000081526004018080602001828103825260258152602001806124896025913960400191505060405180910390fd5b600073ffffffffffffffffffffffffffffffffffffffff168273ffffffffffffffffffffffffffffffffffffffff161415611a6f576040517f08c379a00000000000000000000000000000000000000000000000000000000081526004018080602001828103825260238152602001806123b36023913960400191505060405180910390fd5b611a7a83838361200b565b611ae58160405180606001604052806026815260200161241a602691396000808773ffffffffffffffffffffffffffffffffffffffff1673ffffffffffffffffffffffffffffffffffffffff16815260200190815260200160002054611c249092919063ffffffff16565b6000808573ffffffffffffffffffffffffffffffffffffffff1673ffffffffffffffffffffffffffffffffffffffff16815260200190815260200160002081905550611b78816000808573ffffffffffffffffffffffffffffffffffffffff1673ffffffffffffffffffffffffffffffffffffffff168152602001908152602001600020546116dc90919063ffffffff16565b6000808473ffffffffffffffffffffffffffffffffffffffff1673ffffffffffffffffffffffffffffffffffffffff168152602001908152602001600020819055508173ffffffffffffffffffffffffffffffffffffffff168373ffffffffffffffffffffffffffffffffffffffff167fddf252ad1be2c89b69c2b068fc378daa952ba7f163c4a11628f55a4df523b3ef836040518082815260200191505060405180910390a3505050565b6000838311158290611cd1576040517f08c379a00000000000000000000000000000000000000000000000000000000081526004018080602001828103825283818151815260200191508051906020019080838360005b83811015611c96578082015181840152602081019050611c7b565b50505050905090810190601f168015611cc35780820380516001836020036101000a031916815260200191505b509250505060405180910390fd5b5060008385039050809150509392505050565b600073ffffffffffffffffffffffffffffffffffffffff168273ffffffffffffffffffffffffffffffffffffffff161415611d6a576040517f08c379a00000000000000000000000000000000000000000000000000000000081526004018080602001828103825260218152602001806124686021913960400191505060405180910390fd5b611d768260008361200b565b611de1816040518060600160405280602281526020016123d6602291396000808673ffffffffffffffffffffffffffffffffffffffff1673ffffffffffffffffffffffffffffffffffffffff16815260200190815260200160002054611c249092919063ffffffff16565b6000808473ffffffffffffffffffffffffffffffffffffffff1673ffffffffffffffffffffffffffffffffffffffff16815260200190815260200160002081905550611e388160025461201090919063ffffffff16565b600281905550600073ffffffffffffffffffffffffffffffffffffffff168273ffffffffffffffffffffffffffffffffffffffff167fddf252ad1be2c89b69c2b068fc378daa952ba7f163c4a11628f55a4df523b3ef836040518082815260200191505060405180910390a35050565b611f458363a9059cbb60e01b8484604051602401808373ffffffffffffffffffffffffffffffffffffffff16815260200182815260200192505050604051602081830303815290604052907bffffffffffffffffffffffffffffffffffffffffffffffffffffffff19166020820180517bffffffffffffffffffffffffffffffffffffffffffffffffffffffff838183161783525050505061205a565b505050565b612005846323b872dd60e01b858585604051602401808473ffffffffffffffffffffffffffffffffffffffff1681526020018373ffffffffffffffffffffffffffffffffffffffff1681526020018281526020019350505050604051602081830303815290604052907bffffffffffffffffffffffffffffffffffffffffffffffffffffffff19166020820180517bffffffffffffffffffffffffffffffffffffffffffffffffffffffff838183161783525050505061205a565b50505050565b505050565b600061205283836040518060400160405280601e81526020017f536166654d6174683a207375627472616374696f6e206f766572666c6f770000815250611c24565b905092915050565b60606120bc826040518060400160405280602081526020017f5361666545524332303a206c6f772d6c6576656c2063616c6c206661696c65648152508573ffffffffffffffffffffffffffffffffffffffff166121499092919063ffffffff16565b9050600081511115612144578080602001905160208110156120dd57600080fd5b8101908080519060200190929190505050612143576040517f08c379a000000000000000000000000000000000000000000000000000000000815260040180806020018281038252602a8152602001806124d2602a913960400191505060405180910390fd5b5b505050565b60606121588484600085612161565b90509392505050565b606061216c85612367565b6121de576040517f08c379a000000000000000000000000000000000000000000000000000000000815260040180806020018281038252601d8152602001807f416464726573733a2063616c6c20746f206e6f6e2d636f6e747261637400000081525060200191505060405180910390fd5b600060608673ffffffffffffffffffffffffffffffffffffffff1685876040518082805190602001908083835b6020831061222e578051825260208201915060208101905060208303925061220b565b6001836020036101000a03801982511681845116808217855250505050505090500191505060006040518083038185875af1925050503d8060008114612290576040519150601f19603f3d011682016040523d82523d6000602084013e612295565b606091505b509150915081156122aa57809250505061235f565b6000815111156122bd5780518082602001fd5b836040517f08c379a00000000000000000000000000000000000000000000000000000000081526004018080602001828103825283818151815260200191508051906020019080838360005b83811015612324578082015181840152602081019050612309565b50505050905090810190601f1680156123515780820380516001836020036101000a031916815260200191505b509250505060405180910390fd5b949350505050565b60008060007fc5d2460186f7233c927e7db2dcc703c0e500b653ca82273b7bfad8045d85a47060001b9050833f91508082141580156123a957506000801b8214155b9250505091905056fe45524332303a207472616e7366657220746f20746865207a65726f206164647265737345524332303a206275726e20616d6f756e7420657863656564732062616c616e636545524332303a20617070726f766520746f20746865207a65726f206164647265737345524332303a207472616e7366657220616d6f756e7420657863656564732062616c616e636545524332303a207472616e7366657220616d6f756e74206578636565647320616c6c6f77616e636545524332303a206275726e2066726f6d20746865207a65726f206164647265737345524332303a207472616e736665722066726f6d20746865207a65726f206164647265737345524332303a20617070726f76652066726f6d20746865207a65726f20616464726573735361666545524332303a204552433230206f7065726174696f6e20646964206e6f74207375636365656445524332303a2064656372656173656420616c6c6f77616e63652062656c6f77207a65726fa2646970667358221220bc9687b32e9da526268abe9c04cb34441d19bafa68fd0164f672132fe377b14664736f6c634300060c0033",
  "immutableReferences": {},
  "source": "// Shares / ERC721Shares\n// SPDX-License-Identifier: GPL-3.0-only\npragma solidity ^0.6.0;\n\nimport { ERC20 } from \"@openzeppelin/contracts/token/ERC20/ERC20.sol\";\nimport { IERC20 } from \"@openzeppelin/contracts/token/ERC20/IERC20.sol\";\nimport { SafeERC20 } from \"@openzeppelin/contracts/token/ERC20/SafeERC20.sol\";\nimport { ERC721Holder } from \"@openzeppelin/contracts/token/ERC721/ERC721Holder.sol\";\nimport { IERC721 } from \"@openzeppelin/contracts/token/ERC721/IERC721.sol\";\nimport { IERC721Metadata } from \"@openzeppelin/contracts/token/ERC721/IERC721Metadata.sol\";\nimport { Strings } from \"@openzeppelin/contracts/utils/Strings.sol\";\n\nimport { SafeERC721Metadata } from \"./SafeERC721Metadata.sol\";\nimport { ERC721Wrapper } from \"./Wrapper.sol\";\n\nlibrary Shares\n{\n\tusing Strings for uint256;\n\tusing SafeERC721Metadata for IERC721Metadata;\n\n\tfunction create(ERC721Wrapper _wrapper, uint256 _tokenId, address _from, uint256 _sharesCount, uint8 _decimals, uint256 _sharePrice, IERC20 _paymentToken, bool _remnant) public returns (ERC721Shares _shares)\n\t{\n\t\tIERC721 _target = _wrapper.target();\n\t\tIERC721Metadata _metadata = IERC721Metadata(address(_target));\n\t\tstring memory _name = string(abi.encodePacked(_metadata.safeName(), \" #\", _tokenId.toString(), \" Shares\"));\n\t\tstring memory _symbol = string(abi.encodePacked(_metadata.safeSymbol(), _tokenId.toString()));\n\t\treturn new ERC721Shares(_name, _symbol, _wrapper, _tokenId, _from, _sharesCount, _decimals, _sharePrice, _paymentToken, _remnant);\n\t}\n}\n\ncontract ERC721Shares is ERC721Holder, ERC20\n{\n\tusing SafeERC20 for IERC20;\n\n\tERC721Wrapper public wrapper;\n\tuint256 public tokenId;\n\tuint256 public sharesCount;\n\tuint256 public sharePrice;\n\tIERC20 public paymentToken;\n\tbool public remnant;\n\n\tbool public released;\n\n\tconstructor (string memory _name, string memory _symbol, ERC721Wrapper _wrapper, uint256 _tokenId, address _from, uint256 _sharesCount, uint8 _decimals, uint256 _sharePrice, IERC20 _paymentToken, bool _remnant) ERC20(_name, _symbol) public\n\t{\n\t\twrapper = _wrapper;\n\t\ttokenId = _tokenId;\n\t\tsharesCount = _sharesCount;\n\t\tsharePrice = _sharePrice;\n\t\tpaymentToken = _paymentToken;\n\t\tremnant = _remnant;\n\t\treleased = false;\n\t\t_setupDecimals(_decimals);\n\t\t_mint(_from, _sharesCount);\n\t}\n\n\tfunction exitPrice() public view returns (uint256 _exitPrice)\n\t{\n\t\treturn sharesCount * sharePrice;\n\t}\n\n\tfunction redeemAmountOf(address _from) public view returns (uint256 _redeemAmount)\n\t{\n\t\trequire(!released);\n\t\tuint256 _sharesCount = balanceOf(_from);\n\t\tuint256 _exitPrice = exitPrice();\n\t\treturn _exitPrice - _sharesCount * sharePrice;\n\t}\n\n\tfunction vaultBalance() public view returns (uint256 _vaultBalance)\n\t{\n\t\tif (!released) return 0;\n\t\treturn sharesCount * sharePrice;\n\t}\n\n\tfunction vaultBalanceOf(address _from) public view returns (uint256 _vaultBalanceOf)\n\t{\n\t\tif (!released) return 0;\n\t\tuint256 _sharesCount = balanceOf(_from);\n\t\treturn _sharesCount * sharePrice;\n\t}\n\n\tfunction redeem() public payable\n\t{\n\t\trequire(!released);\n\t\taddress payable _from = msg.sender;\n\t\tuint256 _paymentAmount = msg.value;\n\t\tuint256 _redeemAmount = redeemAmountOf(_from);\n\t\tif (paymentToken == IERC20(0)) {\n\t\t\trequire(_paymentAmount >= _redeemAmount);\n\t\t\tuint256 _changeAmount = _paymentAmount - _redeemAmount;\n\t\t\tif (_changeAmount > 0) _from.transfer(_changeAmount);\n\t\t} else {\n\t\t\tif (_paymentAmount > 0) _from.transfer(_paymentAmount);\n\t\t\tif (_redeemAmount > 0) paymentToken.safeTransferFrom(_from, address(this), _redeemAmount);\n\t\t}\n\t\treleased = true;\n\t\tuint256 _sharesCount = balanceOf(_from);\n\t\tif (_sharesCount > 0) _burn(_from, _sharesCount);\n\t\twrapper._remove(_from, tokenId, remnant);\n\t\twrapper.target().safeTransferFrom(address(this), _from, tokenId);\n\t\tuint256 _sharesLeft = totalSupply();\n\t\tif (_sharesLeft == 0) {\n\t\t\twrapper._forget(tokenId);\n\t\t\tselfdestruct(_from);\n\t\t}\n\t}\n\n\tfunction claim() public\n\t{\n\t\trequire(released);\n\t\taddress payable _from = msg.sender;\n\t\tuint256 _sharesCount = balanceOf(_from);\n\t\trequire(_sharesCount > 0);\n\t\t_burn(_from, _sharesCount);\n\t\tuint256 _claimAmount = vaultBalanceOf(_from);\n\t\tassert(_claimAmount > 0);\n\t\tif (paymentToken == IERC20(0)) _from.transfer(_claimAmount);\n\t\telse paymentToken.safeTransfer(_from, _claimAmount);\n\t\tuint256 _sharesLeft = totalSupply();\n\t\tif (_sharesLeft == 0) {\n\t\t\twrapper._forget(tokenId);\n\t\t\tselfdestruct(_from);\n\t\t}\n\t}\n}\n",
  "sourcePath": "/home/raugfer/Projects/Executed/nftfy/nftfy-core/contracts/Shares.sol",
  "compiler": {
    "name": "solc",
    "version": "0.6.12+commit.27d51765.Emscripten.clang"
  },
  "schemaVersion": "3.2.3",
  "updatedAt": "2020-08-06T19:34:46.652Z",
  "devdoc": {
    "kind": "dev",
    "methods": {
      "allowance(address,address)": {
        "details": "See {IERC20-allowance}."
      },
      "approve(address,uint256)": {
        "details": "See {IERC20-approve}. Requirements: - `spender` cannot be the zero address."
      },
      "balanceOf(address)": {
        "details": "See {IERC20-balanceOf}."
      },
      "decimals()": {
        "details": "Returns the number of decimals used to get its user representation. For example, if `decimals` equals `2`, a balance of `505` tokens should be displayed to a user as `5,05` (`505 / 10 ** 2`). Tokens usually opt for a value of 18, imitating the relationship between Ether and Wei. This is the value {ERC20} uses, unless {_setupDecimals} is called. NOTE: This information is only used for _display_ purposes: it in no way affects any of the arithmetic of the contract, including {IERC20-balanceOf} and {IERC20-transfer}."
      },
      "decreaseAllowance(address,uint256)": {
        "details": "Atomically decreases the allowance granted to `spender` by the caller. This is an alternative to {approve} that can be used as a mitigation for problems described in {IERC20-approve}. Emits an {Approval} event indicating the updated allowance. Requirements: - `spender` cannot be the zero address. - `spender` must have allowance for the caller of at least `subtractedValue`."
      },
      "increaseAllowance(address,uint256)": {
        "details": "Atomically increases the allowance granted to `spender` by the caller. This is an alternative to {approve} that can be used as a mitigation for problems described in {IERC20-approve}. Emits an {Approval} event indicating the updated allowance. Requirements: - `spender` cannot be the zero address."
      },
      "name()": {
        "details": "Returns the name of the token."
      },
      "onERC721Received(address,address,uint256,bytes)": {
        "details": "See {IERC721Receiver-onERC721Received}. Always returns `IERC721Receiver.onERC721Received.selector`."
      },
      "symbol()": {
        "details": "Returns the symbol of the token, usually a shorter version of the name."
      },
      "totalSupply()": {
        "details": "See {IERC20-totalSupply}."
      },
      "transfer(address,uint256)": {
        "details": "See {IERC20-transfer}. Requirements: - `recipient` cannot be the zero address. - the caller must have a balance of at least `amount`."
      },
      "transferFrom(address,address,uint256)": {
        "details": "See {IERC20-transferFrom}. Emits an {Approval} event indicating the updated allowance. This is not required by the EIP. See the note at the beginning of {ERC20}; Requirements: - `sender` and `recipient` cannot be the zero address. - `sender` must have a balance of at least `amount`. - the caller must have allowance for ``sender``'s tokens of at least `amount`."
      }
    },
    "version": 1
  },
  "userdoc": {
    "kind": "user",
    "methods": {},
    "version": 1
  }
}