{
  "contractName": "ERC721Wrapper",
  "abi": [
    {
      "inputs": [
        {
          "internalType": "string",
          "name": "_name",
          "type": "string"
        },
        {
          "internalType": "string",
          "name": "_symbol",
          "type": "string"
        },
        {
          "internalType": "contract IERC721",
          "name": "_target",
          "type": "address"
        }
      ],
      "stateMutability": "nonpayable",
      "type": "constructor"
    },
    {
      "anonymous": false,
      "inputs": [
        {
          "indexed": true,
          "internalType": "address",
          "name": "owner",
          "type": "address"
        },
        {
          "indexed": true,
          "internalType": "address",
          "name": "approved",
          "type": "address"
        },
        {
          "indexed": true,
          "internalType": "uint256",
          "name": "tokenId",
          "type": "uint256"
        }
      ],
      "name": "Approval",
      "type": "event"
    },
    {
      "anonymous": false,
      "inputs": [
        {
          "indexed": true,
          "internalType": "address",
          "name": "owner",
          "type": "address"
        },
        {
          "indexed": true,
          "internalType": "address",
          "name": "operator",
          "type": "address"
        },
        {
          "indexed": false,
          "internalType": "bool",
          "name": "approved",
          "type": "bool"
        }
      ],
      "name": "ApprovalForAll",
      "type": "event"
    },
    {
      "anonymous": false,
      "inputs": [
        {
          "indexed": true,
          "internalType": "address",
          "name": "previousOwner",
          "type": "address"
        },
        {
          "indexed": true,
          "internalType": "address",
          "name": "newOwner",
          "type": "address"
        }
      ],
      "name": "OwnershipTransferred",
      "type": "event"
    },
    {
      "anonymous": false,
      "inputs": [
        {
          "indexed": true,
          "internalType": "address",
          "name": "_from",
          "type": "address"
        },
        {
          "indexed": true,
          "internalType": "uint256",
          "name": "_tokenId",
          "type": "uint256"
        },
        {
          "indexed": true,
          "internalType": "address",
          "name": "_shares",
          "type": "address"
        }
      ],
      "name": "Redeem",
      "type": "event"
    },
    {
      "anonymous": false,
      "inputs": [
        {
          "indexed": true,
          "internalType": "address",
          "name": "_from",
          "type": "address"
        },
        {
          "indexed": true,
          "internalType": "uint256",
          "name": "_tokenId",
          "type": "uint256"
        },
        {
          "indexed": true,
          "internalType": "address",
          "name": "_shares",
          "type": "address"
        }
      ],
      "name": "Securitize",
      "type": "event"
    },
    {
      "anonymous": false,
      "inputs": [
        {
          "indexed": true,
          "internalType": "address",
          "name": "from",
          "type": "address"
        },
        {
          "indexed": true,
          "internalType": "address",
          "name": "to",
          "type": "address"
        },
        {
          "indexed": true,
          "internalType": "uint256",
          "name": "tokenId",
          "type": "uint256"
        }
      ],
      "name": "Transfer",
      "type": "event"
    },
    {
      "inputs": [
        {
          "internalType": "address",
          "name": "to",
          "type": "address"
        },
        {
          "internalType": "uint256",
          "name": "tokenId",
          "type": "uint256"
        }
      ],
      "name": "approve",
      "outputs": [],
      "stateMutability": "nonpayable",
      "type": "function"
    },
    {
      "inputs": [
        {
          "internalType": "address",
          "name": "owner",
          "type": "address"
        }
      ],
      "name": "balanceOf",
      "outputs": [
        {
          "internalType": "uint256",
          "name": "",
          "type": "uint256"
        }
      ],
      "stateMutability": "view",
      "type": "function"
    },
    {
      "inputs": [],
      "name": "baseURI",
      "outputs": [
        {
          "internalType": "string",
          "name": "",
          "type": "string"
        }
      ],
      "stateMutability": "view",
      "type": "function"
    },
    {
      "inputs": [
        {
          "internalType": "uint256",
          "name": "tokenId",
          "type": "uint256"
        }
      ],
      "name": "getApproved",
      "outputs": [
        {
          "internalType": "address",
          "name": "",
          "type": "address"
        }
      ],
      "stateMutability": "view",
      "type": "function"
    },
    {
      "inputs": [
        {
          "internalType": "address",
          "name": "owner",
          "type": "address"
        },
        {
          "internalType": "address",
          "name": "operator",
          "type": "address"
        }
      ],
      "name": "isApprovedForAll",
      "outputs": [
        {
          "internalType": "bool",
          "name": "",
          "type": "bool"
        }
      ],
      "stateMutability": "view",
      "type": "function"
    },
    {
      "inputs": [],
      "name": "name",
      "outputs": [
        {
          "internalType": "string",
          "name": "",
          "type": "string"
        }
      ],
      "stateMutability": "view",
      "type": "function"
    },
    {
      "inputs": [],
      "name": "owner",
      "outputs": [
        {
          "internalType": "address",
          "name": "",
          "type": "address"
        }
      ],
      "stateMutability": "view",
      "type": "function"
    },
    {
      "inputs": [
        {
          "internalType": "uint256",
          "name": "tokenId",
          "type": "uint256"
        }
      ],
      "name": "ownerOf",
      "outputs": [
        {
          "internalType": "address",
          "name": "",
          "type": "address"
        }
      ],
      "stateMutability": "view",
      "type": "function"
    },
    {
      "inputs": [],
      "name": "renounceOwnership",
      "outputs": [],
      "stateMutability": "nonpayable",
      "type": "function"
    },
    {
      "inputs": [
        {
          "internalType": "address",
          "name": "from",
          "type": "address"
        },
        {
          "internalType": "address",
          "name": "to",
          "type": "address"
        },
        {
          "internalType": "uint256",
          "name": "tokenId",
          "type": "uint256"
        }
      ],
      "name": "safeTransferFrom",
      "outputs": [],
      "stateMutability": "nonpayable",
      "type": "function"
    },
    {
      "inputs": [
        {
          "internalType": "address",
          "name": "from",
          "type": "address"
        },
        {
          "internalType": "address",
          "name": "to",
          "type": "address"
        },
        {
          "internalType": "uint256",
          "name": "tokenId",
          "type": "uint256"
        },
        {
          "internalType": "bytes",
          "name": "_data",
          "type": "bytes"
        }
      ],
      "name": "safeTransferFrom",
      "outputs": [],
      "stateMutability": "nonpayable",
      "type": "function"
    },
    {
      "inputs": [
        {
          "internalType": "address",
          "name": "operator",
          "type": "address"
        },
        {
          "internalType": "bool",
          "name": "approved",
          "type": "bool"
        }
      ],
      "name": "setApprovalForAll",
      "outputs": [],
      "stateMutability": "nonpayable",
      "type": "function"
    },
    {
      "inputs": [
        {
          "internalType": "uint256",
          "name": "",
          "type": "uint256"
        }
      ],
      "name": "shares",
      "outputs": [
        {
          "internalType": "contract ERC721Shares",
          "name": "",
          "type": "address"
        }
      ],
      "stateMutability": "view",
      "type": "function"
    },
    {
      "inputs": [
        {
          "internalType": "bytes4",
          "name": "interfaceId",
          "type": "bytes4"
        }
      ],
      "name": "supportsInterface",
      "outputs": [
        {
          "internalType": "bool",
          "name": "",
          "type": "bool"
        }
      ],
      "stateMutability": "view",
      "type": "function"
    },
    {
      "inputs": [],
      "name": "symbol",
      "outputs": [
        {
          "internalType": "string",
          "name": "",
          "type": "string"
        }
      ],
      "stateMutability": "view",
      "type": "function"
    },
    {
      "inputs": [],
      "name": "target",
      "outputs": [
        {
          "internalType": "contract IERC721",
          "name": "",
          "type": "address"
        }
      ],
      "stateMutability": "view",
      "type": "function"
    },
    {
      "inputs": [
        {
          "internalType": "uint256",
          "name": "index",
          "type": "uint256"
        }
      ],
      "name": "tokenByIndex",
      "outputs": [
        {
          "internalType": "uint256",
          "name": "",
          "type": "uint256"
        }
      ],
      "stateMutability": "view",
      "type": "function"
    },
    {
      "inputs": [
        {
          "internalType": "address",
          "name": "owner",
          "type": "address"
        },
        {
          "internalType": "uint256",
          "name": "index",
          "type": "uint256"
        }
      ],
      "name": "tokenOfOwnerByIndex",
      "outputs": [
        {
          "internalType": "uint256",
          "name": "",
          "type": "uint256"
        }
      ],
      "stateMutability": "view",
      "type": "function"
    },
    {
      "inputs": [
        {
          "internalType": "uint256",
          "name": "tokenId",
          "type": "uint256"
        }
      ],
      "name": "tokenURI",
      "outputs": [
        {
          "internalType": "string",
          "name": "",
          "type": "string"
        }
      ],
      "stateMutability": "view",
      "type": "function"
    },
    {
      "inputs": [],
      "name": "totalSupply",
      "outputs": [
        {
          "internalType": "uint256",
          "name": "",
          "type": "uint256"
        }
      ],
      "stateMutability": "view",
      "type": "function"
    },
    {
      "inputs": [
        {
          "internalType": "address",
          "name": "from",
          "type": "address"
        },
        {
          "internalType": "address",
          "name": "to",
          "type": "address"
        },
        {
          "internalType": "uint256",
          "name": "tokenId",
          "type": "uint256"
        }
      ],
      "name": "transferFrom",
      "outputs": [],
      "stateMutability": "nonpayable",
      "type": "function"
    },
    {
      "inputs": [
        {
          "internalType": "address",
          "name": "newOwner",
          "type": "address"
        }
      ],
      "name": "transferOwnership",
      "outputs": [],
      "stateMutability": "nonpayable",
      "type": "function"
    },
    {
      "inputs": [
        {
          "internalType": "uint256",
          "name": "_tokenId",
          "type": "uint256"
        }
      ],
      "name": "securitized",
      "outputs": [
        {
          "internalType": "bool",
          "name": "_securitized",
          "type": "bool"
        }
      ],
      "stateMutability": "view",
      "type": "function"
    },
    {
      "inputs": [
        {
          "internalType": "uint256",
          "name": "_tokenId",
          "type": "uint256"
        }
      ],
      "name": "historyLength",
      "outputs": [
        {
          "internalType": "uint256",
          "name": "_length",
          "type": "uint256"
        }
      ],
      "stateMutability": "view",
      "type": "function"
    },
    {
      "inputs": [
        {
          "internalType": "uint256",
          "name": "_tokenId",
          "type": "uint256"
        },
        {
          "internalType": "uint256",
          "name": "_index",
          "type": "uint256"
        }
      ],
      "name": "historyAt",
      "outputs": [
        {
          "internalType": "contract ERC721Shares",
          "name": "_shares",
          "type": "address"
        }
      ],
      "stateMutability": "view",
      "type": "function"
    },
    {
      "inputs": [
        {
          "internalType": "address",
          "name": "_from",
          "type": "address"
        },
        {
          "internalType": "uint256",
          "name": "_tokenId",
          "type": "uint256"
        },
        {
          "internalType": "bool",
          "name": "_remnant",
          "type": "bool"
        },
        {
          "internalType": "contract ERC721Shares",
          "name": "_shares",
          "type": "address"
        }
      ],
      "name": "_insert",
      "outputs": [],
      "stateMutability": "nonpayable",
      "type": "function"
    },
    {
      "inputs": [
        {
          "internalType": "address",
          "name": "_from",
          "type": "address"
        },
        {
          "internalType": "uint256",
          "name": "_tokenId",
          "type": "uint256"
        },
        {
          "internalType": "bool",
          "name": "_remnant",
          "type": "bool"
        }
      ],
      "name": "_remove",
      "outputs": [],
      "stateMutability": "nonpayable",
      "type": "function"
    },
    {
      "inputs": [
        {
          "internalType": "uint256",
          "name": "_tokenId",
          "type": "uint256"
        }
      ],
      "name": "_forget",
      "outputs": [],
      "stateMutability": "nonpayable",
      "type": "function"
    }
  ],
  "bytecode": "0x60806040523480156200001157600080fd5b506040516200415138038062004151833981810160405260608110156200003757600080fd5b81019080805160405193929190846401000000008211156200005857600080fd5b838201915060208201858111156200006f57600080fd5b82518660018202830111640100000000821117156200008d57600080fd5b8083526020830192505050908051906020019080838360005b83811015620000c3578082015181840152602081019050620000a6565b50505050905090810190601f168015620000f15780820380516001836020036101000a031916815260200191505b50604052602001805160405193929190846401000000008211156200011557600080fd5b838201915060208201858111156200012c57600080fd5b82518660018202830111640100000000821117156200014a57600080fd5b8083526020830192505050908051906020019080838360005b838110156200018057808201518184015260208101905062000163565b50505050905090810190601f168015620001ae5780820380516001836020036101000a031916815260200191505b506040526020018051906020019092919050505082826000620001d66200035260201b60201c565b9050806000806101000a81548173ffffffffffffffffffffffffffffffffffffffff021916908373ffffffffffffffffffffffffffffffffffffffff1602179055508073ffffffffffffffffffffffffffffffffffffffff16600073ffffffffffffffffffffffffffffffffffffffff167f8be0079c531659141344cd1fd0a4f28419497f9722a3daafe3b4186f6b6457e060405160405180910390a3506200028c6301ffc9a760e01b6200035a60201b60201c565b8160079080519060200190620002a492919062000463565b508060089080519060200190620002bd92919062000463565b50620002d66380ac58cd60e01b6200035a60201b60201c565b620002ee635b5e139f60e01b6200035a60201b60201c565b6200030663780e9d6360e01b6200035a60201b60201c565b505080600b60006101000a81548173ffffffffffffffffffffffffffffffffffffffff021916908373ffffffffffffffffffffffffffffffffffffffff16021790555050505062000509565b600033905090565b63ffffffff60e01b817bffffffffffffffffffffffffffffffffffffffffffffffffffffffff19161415620003f7576040517f08c379a000000000000000000000000000000000000000000000000000000000815260040180806020018281038252601c8152602001807f4552433136353a20696e76616c696420696e746572666163652069640000000081525060200191505060405180910390fd5b6001806000837bffffffffffffffffffffffffffffffffffffffffffffffffffffffff19167bffffffffffffffffffffffffffffffffffffffffffffffffffffffff1916815260200190815260200160002060006101000a81548160ff02191690831515021790555050565b828054600181600116156101000203166002900490600052602060002090601f016020900481019282601f10620004a657805160ff1916838001178555620004d7565b82800160010185558215620004d7579182015b82811115620004d6578251825591602001919060010190620004b9565b5b509050620004e69190620004ea565b5090565b5b8082111562000505576000816000905550600101620004eb565b5090565b613c3880620005196000396000f3fe608060405234801561001057600080fd5b50600436106101c45760003560e01c80636b7ac257116100f9578063a946b32c11610097578063d4b8399211610071578063d4b8399214610ae1578063d5e5afa614610b15578063e985e9c514610b59578063f2fde38b14610bd3576101c4565b8063a946b32c146108f3578063b88d4fde14610935578063c87b56dd14610a3a576101c4565b8063715018a6116100d3578063715018a6146107e25780638da5cb5b146107ec57806395d89b4114610820578063a22cb465146108a3576101c4565b80636b7ac2571461068d5780636c0360eb1461070757806370a082311461078a576101c4565b8063290bfdc51161016657806342842e0e1161014057806342842e0e1461052d5780634f6ccce71461059b57806357a858fc146105dd5780636352211e14610635576101c4565b8063290bfdc51461040f5780632f745c59146104695780633529cb20146104cb576101c4565b8063095ea7b3116101a2578063095ea7b31461030757806318160ddd1461035557806320ae1e361461037357806323b872dd146103a1576101c4565b806301ffc9a7146101c957806306fdde031461022c578063081812fc146102af575b600080fd5b610214600480360360208110156101df57600080fd5b8101908080357bffffffffffffffffffffffffffffffffffffffffffffffffffffffff19169060200190929190505050610c17565b60405180821515815260200191505060405180910390f35b610234610c7f565b6040518080602001828103825283818151815260200191508051906020019080838360005b83811015610274578082015181840152602081019050610259565b50505050905090810190601f1680156102a15780820380516001836020036101000a031916815260200191505b509250505060405180910390f35b6102db600480360360208110156102c557600080fd5b8101908080359060200190929190505050610d21565b604051808273ffffffffffffffffffffffffffffffffffffffff16815260200191505060405180910390f35b6103536004803603604081101561031d57600080fd5b81019080803573ffffffffffffffffffffffffffffffffffffffff16906020019092919080359060200190929190505050610dbc565b005b61035d610f00565b6040518082815260200191505060405180910390f35b61039f6004803603602081101561038957600080fd5b8101908080359060200190929190505050610f11565b005b61040d600480360360608110156103b757600080fd5b81019080803573ffffffffffffffffffffffffffffffffffffffff169060200190929190803573ffffffffffffffffffffffffffffffffffffffff16906020019092919080359060200190929190505050610f48565b005b6104676004803603606081101561042557600080fd5b81019080803573ffffffffffffffffffffffffffffffffffffffff16906020019092919080359060200190929190803515159060200190929190505050610fbe565b005b6104b56004803603604081101561047f57600080fd5b81019080803573ffffffffffffffffffffffffffffffffffffffff1690602001909291908035906020019092919050505061113d565b6040518082815260200191505060405180910390f35b610501600480360360408110156104e157600080fd5b810190808035906020019092919080359060200190929190505050611198565b604051808273ffffffffffffffffffffffffffffffffffffffff16815260200191505060405180910390f35b6105996004803603606081101561054357600080fd5b81019080803573ffffffffffffffffffffffffffffffffffffffff169060200190929190803573ffffffffffffffffffffffffffffffffffffffff169060200190929190803590602001909291905050506111c7565b005b6105c7600480360360208110156105b157600080fd5b81019080803590602001909291905050506111e7565b6040518082815260200191505060405180910390f35b610609600480360360208110156105f357600080fd5b810190808035906020019092919050505061120a565b604051808273ffffffffffffffffffffffffffffffffffffffff16815260200191505060405180910390f35b6106616004803603602081101561064b57600080fd5b810190808035906020019092919050505061123d565b604051808273ffffffffffffffffffffffffffffffffffffffff16815260200191505060405180910390f35b610705600480360360808110156106a357600080fd5b81019080803573ffffffffffffffffffffffffffffffffffffffff16906020019092919080359060200190929190803515159060200190929190803573ffffffffffffffffffffffffffffffffffffffff169060200190929190505050611274565b005b61070f611652565b6040518080602001828103825283818151815260200191508051906020019080838360005b8381101561074f578082015181840152602081019050610734565b50505050905090810190601f16801561077c5780820380516001836020036101000a031916815260200191505b509250505060405180910390f35b6107cc600480360360208110156107a057600080fd5b81019080803573ffffffffffffffffffffffffffffffffffffffff1690602001909291905050506116f4565b6040518082815260200191505060405180910390f35b6107ea6117c9565b005b6107f461194f565b604051808273ffffffffffffffffffffffffffffffffffffffff16815260200191505060405180910390f35b610828611978565b6040518080602001828103825283818151815260200191508051906020019080838360005b8381101561086857808201518184015260208101905061084d565b50505050905090810190601f1680156108955780820380516001836020036101000a031916815260200191505b509250505060405180910390f35b6108f1600480360360408110156108b957600080fd5b81019080803573ffffffffffffffffffffffffffffffffffffffff169060200190929190803515159060200190929190505050611a1a565b005b61091f6004803603602081101561090957600080fd5b8101908080359060200190929190505050611bd0565b6040518082815260200191505060405180910390f35b610a386004803603608081101561094b57600080fd5b81019080803573ffffffffffffffffffffffffffffffffffffffff169060200190929190803573ffffffffffffffffffffffffffffffffffffffff16906020019092919080359060200190929190803590602001906401000000008111156109b257600080fd5b8201836020820111156109c457600080fd5b803590602001918460018302840111640100000000831117156109e657600080fd5b91908080601f016020809104026020016040519081016040528093929190818152602001838380828437600081840152601f19601f820116905080830192505050505050509192919290505050611bf4565b005b610a6660048036036020811015610a5057600080fd5b8101908080359060200190929190505050611c6c565b6040518080602001828103825283818151815260200191508051906020019080838360005b83811015610aa6578082015181840152602081019050610a8b565b50505050905090810190601f168015610ad35780820380516001836020036101000a031916815260200191505b509250505060405180910390f35b610ae9611f55565b604051808273ffffffffffffffffffffffffffffffffffffffff16815260200191505060405180910390f35b610b4160048036036020811015610b2b57600080fd5b8101908080359060200190929190505050611f7b565b60405180821515815260200191505060405180910390f35b610bbb60048036036040811015610b6f57600080fd5b81019080803573ffffffffffffffffffffffffffffffffffffffff169060200190929190803573ffffffffffffffffffffffffffffffffffffffff169060200190929190505050611fe7565b60405180821515815260200191505060405180910390f35b610c1560048036036020811015610be957600080fd5b81019080803573ffffffffffffffffffffffffffffffffffffffff16906020019092919050505061207b565b005b600060016000837bffffffffffffffffffffffffffffffffffffffffffffffffffffffff19167bffffffffffffffffffffffffffffffffffffffffffffffffffffffff1916815260200190815260200160002060009054906101000a900460ff169050919050565b606060078054600181600116156101000203166002900480601f016020809104026020016040519081016040528092919081815260200182805460018160011615610100020316600290048015610d175780601f10610cec57610100808354040283529160200191610d17565b820191906000526020600020905b815481529060010190602001808311610cfa57829003601f168201915b5050505050905090565b6000610d2c82612286565b610d81576040517f08c379a000000000000000000000000000000000000000000000000000000000815260040180806020018281038252602c815260200180613b01602c913960400191505060405180910390fd5b6005600083815260200190815260200160002060009054906101000a900473ffffffffffffffffffffffffffffffffffffffff169050919050565b6000610dc78261123d565b90508073ffffffffffffffffffffffffffffffffffffffff168373ffffffffffffffffffffffffffffffffffffffff161415610e4e576040517f08c379a0000000000000000000000000000000000000000000000000000000008152600401808060200182810382526021815260200180613bb16021913960400191505060405180910390fd5b8073ffffffffffffffffffffffffffffffffffffffff16610e6d6122a3565b73ffffffffffffffffffffffffffffffffffffffff161480610e9c5750610e9b81610e966122a3565b611fe7565b5b610ef1576040517f08c379a0000000000000000000000000000000000000000000000000000000008152600401808060200182810382526038815260200180613a546038913960400191505060405180910390fd5b610efb83836122ab565b505050565b6000610f0c6003612364565b905090565b6000339050610f3b81600d600085815260200190815260200160002061237990919063ffffffff16565b610f4457600080fd5b5050565b610f59610f536122a3565b826123a9565b610fae576040517f08c379a0000000000000000000000000000000000000000000000000000000008152600401808060200182810382526031815260200180613bd26031913960400191505060405180910390fd5b610fb983838361249d565b505050565b60003390508073ffffffffffffffffffffffffffffffffffffffff16600c600085815260200190815260200160002060009054906101000a900473ffffffffffffffffffffffffffffffffffffffff1673ffffffffffffffffffffffffffffffffffffffff161461102e57600080fd5b6000600c600085815260200190815260200160002060006101000a81548173ffffffffffffffffffffffffffffffffffffffff021916908373ffffffffffffffffffffffffffffffffffffffff16021790555060008261108e5781611090565b845b905061109b8461123d565b73ffffffffffffffffffffffffffffffffffffffff168173ffffffffffffffffffffffffffffffffffffffff16146110d257600080fd5b6110db846126e0565b8173ffffffffffffffffffffffffffffffffffffffff16848673ffffffffffffffffffffffffffffffffffffffff167fcb2a3294e34578df242bc534fd343e857e150549c4dfc493d69aa7167743dd1860405160405180910390a45050505050565b600061119082600260008673ffffffffffffffffffffffffffffffffffffffff1673ffffffffffffffffffffffffffffffffffffffff16815260200190815260200160002061281a90919063ffffffff16565b905092915050565b60006111bf82600d600086815260200190815260200160002061283490919063ffffffff16565b905092915050565b6111e283838360405180602001604052806000815250611bf4565b505050565b6000806111fe83600361284e90919063ffffffff16565b50905080915050919050565b600c6020528060005260406000206000915054906101000a900473ffffffffffffffffffffffffffffffffffffffff1681565b600061126d82604051806060016040528060298152602001613ab660299139600361287a9092919063ffffffff16565b9050919050565b61127c6122a3565b73ffffffffffffffffffffffffffffffffffffffff1660008054906101000a900473ffffffffffffffffffffffffffffffffffffffff1673ffffffffffffffffffffffffffffffffffffffff161461133c576040517f08c379a00000000000000000000000000000000000000000000000000000000081526004018080602001828103825260208152602001807f4f776e61626c653a2063616c6c6572206973206e6f7420746865206f776e657281525060200191505060405180910390fd5b600073ffffffffffffffffffffffffffffffffffffffff16600c600085815260200190815260200160002060009054906101000a900473ffffffffffffffffffffffffffffffffffffffff1673ffffffffffffffffffffffffffffffffffffffff16146113a857600080fd5b80600c600085815260200190815260200160002060006101000a81548173ffffffffffffffffffffffffffffffffffffffff021916908373ffffffffffffffffffffffffffffffffffffffff16021790555061141f81600d600086815260200190815260200160002061289990919063ffffffff16565b5060008261142d578161142f565b845b905061143b81856128c9565b6000600b60009054906101000a900473ffffffffffffffffffffffffffffffffffffffff16905060608173ffffffffffffffffffffffffffffffffffffffff1673__SafeERC721Metadata____________________6335ce8e7f9091886040518363ffffffff1660e01b8152600401808373ffffffffffffffffffffffffffffffffffffffff1681526020018281526020019250505060006040518083038186803b1580156114e957600080fd5b505af41580156114fd573d6000803e3d6000fd5b505050506040513d6000823e3d601f19601f82011682018060405250602081101561152757600080fd5b810190808051604051939291908464010000000082111561154757600080fd5b8382019150602082018581111561155d57600080fd5b825186600182028301116401000000008211171561157a57600080fd5b8083526020830192505050908051906020019080838360005b838110156115ae578082015181840152602081019050611593565b50505050905090810190601f1680156115db5780820380516001836020036101000a031916815260200191505b5060405250505090506115ee86826128e7565b8373ffffffffffffffffffffffffffffffffffffffff16868873ffffffffffffffffffffffffffffffffffffffff167f8c402485c0ed565601d48f1e9237000b8c1fe83e1af3a93ed39b20fa944d6ddb60405160405180910390a450505050505050565b6060600a8054600181600116156101000203166002900480601f0160208091040260200160405190810160405280929190818152602001828054600181600116156101000203166002900480156116ea5780601f106116bf576101008083540402835291602001916116ea565b820191906000526020600020905b8154815290600101906020018083116116cd57829003601f168201915b5050505050905090565b60008073ffffffffffffffffffffffffffffffffffffffff168273ffffffffffffffffffffffffffffffffffffffff16141561177b576040517f08c379a000000000000000000000000000000000000000000000000000000000815260040180806020018281038252602a815260200180613a8c602a913960400191505060405180910390fd5b6117c2600260008473ffffffffffffffffffffffffffffffffffffffff1673ffffffffffffffffffffffffffffffffffffffff168152602001908152602001600020612971565b9050919050565b6117d16122a3565b73ffffffffffffffffffffffffffffffffffffffff1660008054906101000a900473ffffffffffffffffffffffffffffffffffffffff1673ffffffffffffffffffffffffffffffffffffffff1614611891576040517f08c379a00000000000000000000000000000000000000000000000000000000081526004018080602001828103825260208152602001807f4f776e61626c653a2063616c6c6572206973206e6f7420746865206f776e657281525060200191505060405180910390fd5b600073ffffffffffffffffffffffffffffffffffffffff1660008054906101000a900473ffffffffffffffffffffffffffffffffffffffff1673ffffffffffffffffffffffffffffffffffffffff167f8be0079c531659141344cd1fd0a4f28419497f9722a3daafe3b4186f6b6457e060405160405180910390a360008060006101000a81548173ffffffffffffffffffffffffffffffffffffffff021916908373ffffffffffffffffffffffffffffffffffffffff160217905550565b60008060009054906101000a900473ffffffffffffffffffffffffffffffffffffffff16905090565b606060088054600181600116156101000203166002900480601f016020809104026020016040519081016040528092919081815260200182805460018160011615610100020316600290048015611a105780601f106119e557610100808354040283529160200191611a10565b820191906000526020600020905b8154815290600101906020018083116119f357829003601f168201915b5050505050905090565b611a226122a3565b73ffffffffffffffffffffffffffffffffffffffff168273ffffffffffffffffffffffffffffffffffffffff161415611ac3576040517f08c379a00000000000000000000000000000000000000000000000000000000081526004018080602001828103825260198152602001807f4552433732313a20617070726f766520746f2063616c6c65720000000000000081525060200191505060405180910390fd5b8060066000611ad06122a3565b73ffffffffffffffffffffffffffffffffffffffff1673ffffffffffffffffffffffffffffffffffffffff16815260200190815260200160002060008473ffffffffffffffffffffffffffffffffffffffff1673ffffffffffffffffffffffffffffffffffffffff16815260200190815260200160002060006101000a81548160ff0219169083151502179055508173ffffffffffffffffffffffffffffffffffffffff16611b7d6122a3565b73ffffffffffffffffffffffffffffffffffffffff167f17307eab39ab6107e8899845ad3d59bd9653f200f220920489ca2b5937696c318360405180821515815260200191505060405180910390a35050565b6000611bed600d6000848152602001908152602001600020612986565b9050919050565b611c05611bff6122a3565b836123a9565b611c5a576040517f08c379a0000000000000000000000000000000000000000000000000000000008152600401808060200182810382526031815260200180613bd26031913960400191505060405180910390fd5b611c668484848461299b565b50505050565b6060611c7782612286565b611ccc576040517f08c379a000000000000000000000000000000000000000000000000000000000815260040180806020018281038252602f815260200180613b82602f913960400191505060405180910390fd5b6060600960008481526020019081526020016000208054600181600116156101000203166002900480601f016020809104026020016040519081016040528092919081815260200182805460018160011615610100020316600290048015611d755780601f10611d4a57610100808354040283529160200191611d75565b820191906000526020600020905b815481529060010190602001808311611d5857829003601f168201915b505050505090506000600a8054600181600116156101000203166002900490501415611da45780915050611f50565b600081511115611e7d57600a816040516020018083805460018160011615610100020316600290048015611e0f5780601f10611ded576101008083540402835291820191611e0f565b820191906000526020600020905b815481529060010190602001808311611dfb575b505082805190602001908083835b60208310611e405780518252602082019150602081019050602083039250611e1d565b6001836020036101000a03801982511681845116808217855250505050505090500192505050604051602081830303815290604052915050611f50565b600a611e8884612a0d565b6040516020018083805460018160011615610100020316600290048015611ee65780601f10611ec4576101008083540402835291820191611ee6565b820191906000526020600020905b815481529060010190602001808311611ed2575b505082805190602001908083835b60208310611f175780518252602082019150602081019050602083039250611ef4565b6001836020036101000a038019825116818451168082178552505050505050905001925050506040516020818303038152906040529150505b919050565b600b60009054906101000a900473ffffffffffffffffffffffffffffffffffffffff1681565b60008073ffffffffffffffffffffffffffffffffffffffff16600c600084815260200190815260200160002060009054906101000a900473ffffffffffffffffffffffffffffffffffffffff1673ffffffffffffffffffffffffffffffffffffffff1614159050919050565b6000600660008473ffffffffffffffffffffffffffffffffffffffff1673ffffffffffffffffffffffffffffffffffffffff16815260200190815260200160002060008373ffffffffffffffffffffffffffffffffffffffff1673ffffffffffffffffffffffffffffffffffffffff16815260200190815260200160002060009054906101000a900460ff16905092915050565b6120836122a3565b73ffffffffffffffffffffffffffffffffffffffff1660008054906101000a900473ffffffffffffffffffffffffffffffffffffffff1673ffffffffffffffffffffffffffffffffffffffff1614612143576040517f08c379a00000000000000000000000000000000000000000000000000000000081526004018080602001828103825260208152602001807f4f776e61626c653a2063616c6c6572206973206e6f7420746865206f776e657281525060200191505060405180910390fd5b600073ffffffffffffffffffffffffffffffffffffffff168173ffffffffffffffffffffffffffffffffffffffff1614156121c9576040517f08c379a00000000000000000000000000000000000000000000000000000000081526004018080602001828103825260268152602001806139de6026913960400191505060405180910390fd5b8073ffffffffffffffffffffffffffffffffffffffff1660008054906101000a900473ffffffffffffffffffffffffffffffffffffffff1673ffffffffffffffffffffffffffffffffffffffff167f8be0079c531659141344cd1fd0a4f28419497f9722a3daafe3b4186f6b6457e060405160405180910390a3806000806101000a81548173ffffffffffffffffffffffffffffffffffffffff021916908373ffffffffffffffffffffffffffffffffffffffff16021790555050565b600061229c826003612b5490919063ffffffff16565b9050919050565b600033905090565b816005600083815260200190815260200160002060006101000a81548173ffffffffffffffffffffffffffffffffffffffff021916908373ffffffffffffffffffffffffffffffffffffffff160217905550808273ffffffffffffffffffffffffffffffffffffffff1661231e8361123d565b73ffffffffffffffffffffffffffffffffffffffff167f8c5be1e5ebec7d5bd14f71427d1e84f3dd0314c0f7b2291e5b200ac8c7c3b92560405160405180910390a45050565b600061237282600001612b6e565b9050919050565b60006123a1836000018373ffffffffffffffffffffffffffffffffffffffff1660001b612b7f565b905092915050565b60006123b482612286565b612409576040517f08c379a000000000000000000000000000000000000000000000000000000000815260040180806020018281038252602c815260200180613a28602c913960400191505060405180910390fd5b60006124148361123d565b90508073ffffffffffffffffffffffffffffffffffffffff168473ffffffffffffffffffffffffffffffffffffffff16148061248357508373ffffffffffffffffffffffffffffffffffffffff1661246b84610d21565b73ffffffffffffffffffffffffffffffffffffffff16145b8061249457506124938185611fe7565b5b91505092915050565b8273ffffffffffffffffffffffffffffffffffffffff166124bd8261123d565b73ffffffffffffffffffffffffffffffffffffffff1614612529576040517f08c379a0000000000000000000000000000000000000000000000000000000008152600401808060200182810382526029815260200180613b596029913960400191505060405180910390fd5b600073ffffffffffffffffffffffffffffffffffffffff168273ffffffffffffffffffffffffffffffffffffffff1614156125af576040517f08c379a0000000000000000000000000000000000000000000000000000000008152600401808060200182810382526024815260200180613a046024913960400191505060405180910390fd5b6125ba838383612c67565b6125c56000826122ab565b61261681600260008673ffffffffffffffffffffffffffffffffffffffff1673ffffffffffffffffffffffffffffffffffffffff168152602001908152602001600020612c6c90919063ffffffff16565b5061266881600260008573ffffffffffffffffffffffffffffffffffffffff1673ffffffffffffffffffffffffffffffffffffffff168152602001908152602001600020612c8690919063ffffffff16565b5061267f81836003612ca09092919063ffffffff16565b50808273ffffffffffffffffffffffffffffffffffffffff168473ffffffffffffffffffffffffffffffffffffffff167fddf252ad1be2c89b69c2b068fc378daa952ba7f163c4a11628f55a4df523b3ef60405160405180910390a4505050565b60006126eb8261123d565b90506126f981600084612c67565b6127046000836122ab565b600060096000848152602001908152602001600020805460018160011615610100020316600290049050146127535760096000838152602001908152602001600020600061275291906138a4565b5b6127a482600260008473ffffffffffffffffffffffffffffffffffffffff1673ffffffffffffffffffffffffffffffffffffffff168152602001908152602001600020612c6c90919063ffffffff16565b506127b9826003612cd590919063ffffffff16565b5081600073ffffffffffffffffffffffffffffffffffffffff168273ffffffffffffffffffffffffffffffffffffffff167fddf252ad1be2c89b69c2b068fc378daa952ba7f163c4a11628f55a4df523b3ef60405160405180910390a45050565b60006128298360000183612cef565b60001c905092915050565b60006128438360000183612cef565b60001c905092915050565b6000806000806128618660000186612d72565b915091508160001c8160001c9350935050509250929050565b600061288d846000018460001b84612e0b565b60001c90509392505050565b60006128c1836000018373ffffffffffffffffffffffffffffffffffffffff1660001b612f01565b905092915050565b6128e3828260405180602001604052806000815250612f71565b5050565b6128f082612286565b612945576040517f08c379a000000000000000000000000000000000000000000000000000000000815260040180806020018281038252602c815260200180613b2d602c913960400191505060405180910390fd5b8060096000848152602001908152602001600020908051906020019061296c9291906138ec565b505050565b600061297f82600001612fe2565b9050919050565b600061299482600001612fe2565b9050919050565b6129a684848461249d565b6129b284848484612ff3565b612a07576040517f08c379a00000000000000000000000000000000000000000000000000000000081526004018080602001828103825260328152602001806139ac6032913960400191505060405180910390fd5b50505050565b60606000821415612a55576040518060400160405280600181526020017f30000000000000000000000000000000000000000000000000000000000000008152509050612b4f565b600082905060005b60008214612a7f578080600101915050600a8281612a7757fe5b049150612a5d565b60608167ffffffffffffffff81118015612a9857600080fd5b506040519080825280601f01601f191660200182016040528015612acb5781602001600182028036833780820191505090505b50905060006001830390508593505b60008414612b4757600a8481612aec57fe5b0660300160f81b82828060019003935081518110612b0657fe5b60200101907effffffffffffffffffffffffffffffffffffffffffffffffffffffffffffff1916908160001a905350600a8481612b3f57fe5b049350612ada565b819450505050505b919050565b6000612b66836000018360001b61320c565b905092915050565b600081600001805490509050919050565b60008083600101600084815260200190815260200160002054905060008114612c5b5760006001820390506000600186600001805490500390506000866000018281548110612bca57fe5b9060005260206000200154905080876000018481548110612be757fe5b9060005260206000200181905550600183018760010160008381526020019081526020016000208190555086600001805480612c1f57fe5b60019003818190600052602060002001600090559055866001016000878152602001908152602001600020600090556001945050505050612c61565b60009150505b92915050565b505050565b6000612c7e836000018360001b612b7f565b905092915050565b6000612c98836000018360001b612f01565b905092915050565b6000612ccc846000018460001b8473ffffffffffffffffffffffffffffffffffffffff1660001b61322f565b90509392505050565b6000612ce7836000018360001b61330b565b905092915050565b600081836000018054905011612d50576040517f08c379a000000000000000000000000000000000000000000000000000000000815260040180806020018281038252602281526020018061398a6022913960400191505060405180910390fd5b826000018281548110612d5f57fe5b9060005260206000200154905092915050565b60008082846000018054905011612dd4576040517f08c379a0000000000000000000000000000000000000000000000000000000008152600401808060200182810382526022815260200180613adf6022913960400191505060405180910390fd5b6000846000018481548110612de557fe5b906000526020600020906002020190508060000154816001015492509250509250929050565b60008084600101600085815260200190815260200160002054905060008114158390612ed2576040517f08c379a00000000000000000000000000000000000000000000000000000000081526004018080602001828103825283818151815260200191508051906020019080838360005b83811015612e97578082015181840152602081019050612e7c565b50505050905090810190601f168015612ec45780820380516001836020036101000a031916815260200191505b509250505060405180910390fd5b50846000016001820381548110612ee557fe5b9060005260206000209060020201600101549150509392505050565b6000612f0d8383613424565b612f66578260000182908060018154018082558091505060019003906000526020600020016000909190919091505582600001805490508360010160008481526020019081526020016000208190555060019050612f6b565b600090505b92915050565b612f7b8383613447565b612f886000848484612ff3565b612fdd576040517f08c379a00000000000000000000000000000000000000000000000000000000081526004018080602001828103825260328152602001806139ac6032913960400191505060405180910390fd5b505050565b600081600001805490509050919050565b60006130148473ffffffffffffffffffffffffffffffffffffffff1661363b565b6130215760019050613204565b606061318b63150b7a0260e01b6130366122a3565b888787604051602401808573ffffffffffffffffffffffffffffffffffffffff1681526020018473ffffffffffffffffffffffffffffffffffffffff16815260200183815260200180602001828103825283818151815260200191508051906020019080838360005b838110156130ba57808201518184015260208101905061309f565b50505050905090810190601f1680156130e75780820380516001836020036101000a031916815260200191505b5095505050505050604051602081830303815290604052907bffffffffffffffffffffffffffffffffffffffffffffffffffffffff19166020820180517bffffffffffffffffffffffffffffffffffffffffffffffffffffffff83818316178352505050506040518060600160405280603281526020016139ac603291398773ffffffffffffffffffffffffffffffffffffffff166136869092919063ffffffff16565b905060008180602001905160208110156131a457600080fd5b8101908080519060200190929190505050905063150b7a0260e01b7bffffffffffffffffffffffffffffffffffffffffffffffffffffffff1916817bffffffffffffffffffffffffffffffffffffffffffffffffffffffff191614925050505b949350505050565b600080836001016000848152602001908152602001600020541415905092915050565b60008084600101600085815260200190815260200160002054905060008114156132d657846000016040518060400160405280868152602001858152509080600181540180825580915050600190039060005260206000209060020201600090919091909150600082015181600001556020820151816001015550508460000180549050856001016000868152602001908152602001600020819055506001915050613304565b828560000160018303815481106132e957fe5b90600052602060002090600202016001018190555060009150505b9392505050565b60008083600101600084815260200190815260200160002054905060008114613418576000600182039050600060018660000180549050039050600086600001828154811061335657fe5b906000526020600020906002020190508087600001848154811061337657fe5b90600052602060002090600202016000820154816000015560018201548160010155905050600183018760010160008360000154815260200190815260200160002081905550866000018054806133c957fe5b600190038181906000526020600020906002020160008082016000905560018201600090555050905586600101600087815260200190815260200160002060009055600194505050505061341e565b60009150505b92915050565b600080836001016000848152602001908152602001600020541415905092915050565b600073ffffffffffffffffffffffffffffffffffffffff168273ffffffffffffffffffffffffffffffffffffffff1614156134ea576040517f08c379a00000000000000000000000000000000000000000000000000000000081526004018080602001828103825260208152602001807f4552433732313a206d696e7420746f20746865207a65726f206164647265737381525060200191505060405180910390fd5b6134f381612286565b15613566576040517f08c379a000000000000000000000000000000000000000000000000000000000815260040180806020018281038252601c8152602001807f4552433732313a20746f6b656e20616c7265616479206d696e7465640000000081525060200191505060405180910390fd5b61357260008383612c67565b6135c381600260008573ffffffffffffffffffffffffffffffffffffffff1673ffffffffffffffffffffffffffffffffffffffff168152602001908152602001600020612c8690919063ffffffff16565b506135da81836003612ca09092919063ffffffff16565b50808273ffffffffffffffffffffffffffffffffffffffff16600073ffffffffffffffffffffffffffffffffffffffff167fddf252ad1be2c89b69c2b068fc378daa952ba7f163c4a11628f55a4df523b3ef60405160405180910390a45050565b60008060007fc5d2460186f7233c927e7db2dcc703c0e500b653ca82273b7bfad8045d85a47060001b9050833f915080821415801561367d57506000801b8214155b92505050919050565b6060613695848460008561369e565b90509392505050565b60606136a98561363b565b61371b576040517f08c379a000000000000000000000000000000000000000000000000000000000815260040180806020018281038252601d8152602001807f416464726573733a2063616c6c20746f206e6f6e2d636f6e747261637400000081525060200191505060405180910390fd5b600060608673ffffffffffffffffffffffffffffffffffffffff1685876040518082805190602001908083835b6020831061376b5780518252602082019150602081019050602083039250613748565b6001836020036101000a03801982511681845116808217855250505050505090500191505060006040518083038185875af1925050503d80600081146137cd576040519150601f19603f3d011682016040523d82523d6000602084013e6137d2565b606091505b509150915081156137e757809250505061389c565b6000815111156137fa5780518082602001fd5b836040517f08c379a00000000000000000000000000000000000000000000000000000000081526004018080602001828103825283818151815260200191508051906020019080838360005b83811015613861578082015181840152602081019050613846565b50505050905090810190601f16801561388e5780820380516001836020036101000a031916815260200191505b509250505060405180910390fd5b949350505050565b50805460018160011615610100020316600290046000825580601f106138ca57506138e9565b601f0160209004906000526020600020908101906138e8919061396c565b5b50565b828054600181600116156101000203166002900490600052602060002090601f016020900481019282601f1061392d57805160ff191683800117855561395b565b8280016001018555821561395b579182015b8281111561395a57825182559160200191906001019061393f565b5b509050613968919061396c565b5090565b5b8082111561398557600081600090555060010161396d565b509056fe456e756d657261626c655365743a20696e646578206f7574206f6620626f756e64734552433732313a207472616e7366657220746f206e6f6e20455243373231526563656976657220696d706c656d656e7465724f776e61626c653a206e6577206f776e657220697320746865207a65726f20616464726573734552433732313a207472616e7366657220746f20746865207a65726f20616464726573734552433732313a206f70657261746f7220717565727920666f72206e6f6e6578697374656e7420746f6b656e4552433732313a20617070726f76652063616c6c6572206973206e6f74206f776e6572206e6f7220617070726f76656420666f7220616c6c4552433732313a2062616c616e636520717565727920666f7220746865207a65726f20616464726573734552433732313a206f776e657220717565727920666f72206e6f6e6578697374656e7420746f6b656e456e756d657261626c654d61703a20696e646578206f7574206f6620626f756e64734552433732313a20617070726f76656420717565727920666f72206e6f6e6578697374656e7420746f6b656e4552433732314d657461646174613a2055524920736574206f66206e6f6e6578697374656e7420746f6b656e4552433732313a207472616e73666572206f6620746f6b656e2074686174206973206e6f74206f776e4552433732314d657461646174613a2055524920717565727920666f72206e6f6e6578697374656e7420746f6b656e4552433732313a20617070726f76616c20746f2063757272656e74206f776e65724552433732313a207472616e736665722063616c6c6572206973206e6f74206f776e6572206e6f7220617070726f766564a2646970667358221220d59c42b4ccf5615af2043d41b99fe183836a0f2c038cce44ac3118946ea9718864736f6c634300060c0033",
  "immutableReferences": {},
  "source": "// Wrapper / ERC721Wrapper\n// SPDX-License-Identifier: GPL-3.0-only\npragma solidity ^0.6.0;\n\nimport { Ownable } from \"@openzeppelin/contracts/access/Ownable.sol\";\nimport { ERC721 } from \"@openzeppelin/contracts/token/ERC721/ERC721.sol\";\nimport { IERC721 } from \"@openzeppelin/contracts/token/ERC721/IERC721.sol\";\nimport { IERC721Metadata } from \"@openzeppelin/contracts/token/ERC721/IERC721Metadata.sol\";\nimport { EnumerableSet } from \"@openzeppelin/contracts/utils/EnumerableSet.sol\";\n\nimport { SafeERC721Metadata } from \"./SafeERC721Metadata.sol\";\nimport { ERC721Shares } from \"./Shares.sol\";\n\nlibrary Wrapper\n{\n\tusing SafeERC721Metadata for IERC721Metadata;\n\n\tfunction create(IERC721 _target) public returns (ERC721Wrapper _wrapper)\n\t{\n\t\tIERC721Metadata _metadata = IERC721Metadata(address(_target));\n\t\tstring memory _name = string(abi.encodePacked(\"Wrapped \", _metadata.safeName()));\n\t\tstring memory _symbol = string(abi.encodePacked(\"w\", _metadata.safeSymbol()));\n\t\treturn new ERC721Wrapper(_name, _symbol, _target);\n\t}\n}\n\ncontract ERC721Wrapper is Ownable, ERC721\n{\n\tusing SafeERC721Metadata for IERC721Metadata;\n\tusing EnumerableSet for EnumerableSet.AddressSet;\n\n\tIERC721 public target;\n\tmapping (uint256 => ERC721Shares) public shares;\n\tmapping (uint256 => EnumerableSet.AddressSet) private history;\n\n\tconstructor (string memory _name, string memory _symbol, IERC721 _target) ERC721(_name, _symbol) public\n\t{\n\t\ttarget = _target;\n\t}\n\n\tfunction securitized(uint256 _tokenId) public view returns (bool _securitized)\n\t{\n\t\treturn shares[_tokenId] != ERC721Shares(0);\n\t}\n\n\tfunction historyLength(uint256 _tokenId) public view returns (uint256 _length)\n\t{\n\t\treturn history[_tokenId].length();\n\t}\n\n\tfunction historyAt(uint256 _tokenId, uint256 _index) public view returns (ERC721Shares _shares)\n\t{\n\t\treturn ERC721Shares(history[_tokenId].at(_index));\n\t}\n\n\tfunction _insert(address _from, uint256 _tokenId, bool _remnant, ERC721Shares _shares) public onlyOwner\n\t{\n\t\trequire(shares[_tokenId] == ERC721Shares(0));\n\t\tshares[_tokenId] = _shares;\n\t\thistory[_tokenId].add(address(_shares));\n\t\taddress _holder = _remnant ? _from : address(_shares);\n\t\t_safeMint(_holder, _tokenId);\n\t\tIERC721Metadata _metadata = IERC721Metadata(address(target));\n\t\tstring memory _tokenURI = _metadata.safeTokenURI(_tokenId);\n\t\t_setTokenURI(_tokenId, _tokenURI);\n\t\temit Securitize(_from, _tokenId, address(_shares));\n\t}\n\n\tfunction _remove(address _from, uint256 _tokenId, bool _remnant) public\n\t{\n\t\tERC721Shares _shares = ERC721Shares(msg.sender);\n\t\trequire(shares[_tokenId] == _shares);\n\t\tshares[_tokenId] = ERC721Shares(0);\n\t\taddress _holder = _remnant ? _from : address(_shares);\n\t\trequire(_holder == ownerOf(_tokenId));\n\t\t_burn(_tokenId);\n\t\temit Redeem(_from, _tokenId, address(_shares));\n\t}\n\n\tfunction _forget(uint256 _tokenId) public\n\t{\n\t\tERC721Shares _shares = ERC721Shares(msg.sender);\n\t\trequire(history[_tokenId].remove(address(_shares)));\n\t}\n\n\tevent Securitize(address indexed _from, uint256 indexed _tokenId, address indexed _shares);\n\tevent Redeem(address indexed _from, uint256 indexed _tokenId, address indexed _shares);\n}\n",
  "sourcePath": "/home/raugfer/Projects/Executed/nftfy/nftfy-core/contracts/Wrapper.sol",
  "compiler": {
    "name": "solc",
    "version": "0.6.12+commit.27d51765.Emscripten.clang"
  },
  "schemaVersion": "3.2.3",
  "updatedAt": "2020-08-06T19:34:46.705Z",
  "devdoc": {
    "kind": "dev",
    "methods": {
      "approve(address,uint256)": {
        "details": "See {IERC721-approve}."
      },
      "balanceOf(address)": {
        "details": "See {IERC721-balanceOf}."
      },
      "baseURI()": {
        "details": "Returns the base URI set via {_setBaseURI}. This will be automatically added as a prefix in {tokenURI} to each token's URI, or to the token ID if no specific URI is set for that token ID."
      },
      "getApproved(uint256)": {
        "details": "See {IERC721-getApproved}."
      },
      "isApprovedForAll(address,address)": {
        "details": "See {IERC721-isApprovedForAll}."
      },
      "name()": {
        "details": "See {IERC721Metadata-name}."
      },
      "owner()": {
        "details": "Returns the address of the current owner."
      },
      "ownerOf(uint256)": {
        "details": "See {IERC721-ownerOf}."
      },
      "renounceOwnership()": {
        "details": "Leaves the contract without owner. It will not be possible to call `onlyOwner` functions anymore. Can only be called by the current owner. NOTE: Renouncing ownership will leave the contract without an owner, thereby removing any functionality that is only available to the owner."
      },
      "safeTransferFrom(address,address,uint256)": {
        "details": "See {IERC721-safeTransferFrom}."
      },
      "safeTransferFrom(address,address,uint256,bytes)": {
        "details": "See {IERC721-safeTransferFrom}."
      },
      "setApprovalForAll(address,bool)": {
        "details": "See {IERC721-setApprovalForAll}."
      },
      "supportsInterface(bytes4)": {
        "details": "See {IERC165-supportsInterface}. Time complexity O(1), guaranteed to always use less than 30 000 gas."
      },
      "symbol()": {
        "details": "See {IERC721Metadata-symbol}."
      },
      "tokenByIndex(uint256)": {
        "details": "See {IERC721Enumerable-tokenByIndex}."
      },
      "tokenOfOwnerByIndex(address,uint256)": {
        "details": "See {IERC721Enumerable-tokenOfOwnerByIndex}."
      },
      "tokenURI(uint256)": {
        "details": "See {IERC721Metadata-tokenURI}."
      },
      "totalSupply()": {
        "details": "See {IERC721Enumerable-totalSupply}."
      },
      "transferFrom(address,address,uint256)": {
        "details": "See {IERC721-transferFrom}."
      },
      "transferOwnership(address)": {
        "details": "Transfers ownership of the contract to a new account (`newOwner`). Can only be called by the current owner."
      }
    },
    "version": 1
  },
  "userdoc": {
    "kind": "user",
    "methods": {},
    "version": 1
  }
}