{
  "contractName": "Nftfy",
  "abi": [
    {
      "inputs": [
        {
          "internalType": "contract IERC721",
          "name": "",
          "type": "address"
        }
      ],
      "name": "wrappers",
      "outputs": [
        {
          "internalType": "contract ERC721Wrapper",
          "name": "",
          "type": "address"
        }
      ],
      "stateMutability": "view",
      "type": "function",
      "constant": true
    },
    {
      "inputs": [
        {
          "internalType": "contract IERC721",
          "name": "_target",
          "type": "address"
        }
      ],
      "name": "ensureWrapper",
      "outputs": [
        {
          "internalType": "contract ERC721Wrapper",
          "name": "_wrapper",
          "type": "address"
        }
      ],
      "stateMutability": "nonpayable",
      "type": "function"
    },
    {
      "inputs": [
        {
          "internalType": "contract IERC721",
          "name": "_target",
          "type": "address"
        },
        {
          "internalType": "uint256",
          "name": "_tokenId",
          "type": "uint256"
        },
        {
          "internalType": "uint256",
          "name": "_sharesCount",
          "type": "uint256"
        },
        {
          "internalType": "uint8",
          "name": "_decimals",
          "type": "uint8"
        },
        {
          "internalType": "uint256",
          "name": "_exitPrice",
          "type": "uint256"
        },
        {
          "internalType": "contract IERC20",
          "name": "_paymentToken",
          "type": "address"
        },
        {
          "internalType": "bool",
          "name": "_remnant",
          "type": "bool"
        }
      ],
      "name": "securitize",
      "outputs": [],
      "stateMutability": "nonpayable",
      "type": "function"
    }
  ],
  "bytecode": "0x608060405234801561001057600080fd5b50610754806100206000396000f3fe608060405234801561001057600080fd5b50600436106100415760003560e01c806322429917146100465780639cbfdf1d146100b4578063b41e991a1461014f575b600080fd5b6100886004803603602081101561005c57600080fd5b81019080803573ffffffffffffffffffffffffffffffffffffffff1690602001909291905050506101bd565b604051808273ffffffffffffffffffffffffffffffffffffffff16815260200191505060405180910390f35b61014d600480360360e08110156100ca57600080fd5b81019080803573ffffffffffffffffffffffffffffffffffffffff1690602001909291908035906020019092919080359060200190929190803560ff16906020019092919080359060200190929190803573ffffffffffffffffffffffffffffffffffffffff169060200190929190803515159060200190929190505050610429565b005b6101916004803603602081101561016557600080fd5b81019080803573ffffffffffffffffffffffffffffffffffffffff1690602001909291905050506106eb565b604051808273ffffffffffffffffffffffffffffffffffffffff16815260200191505060405180910390f35b60008060008373ffffffffffffffffffffffffffffffffffffffff1673ffffffffffffffffffffffffffffffffffffffff16815260200190815260200160002060009054906101000a900460ff161561021557600080fd5b600160008373ffffffffffffffffffffffffffffffffffffffff1673ffffffffffffffffffffffffffffffffffffffff16815260200190815260200160002060009054906101000a900473ffffffffffffffffffffffffffffffffffffffff169050600073ffffffffffffffffffffffffffffffffffffffff168173ffffffffffffffffffffffffffffffffffffffff1614156104245773__Wrapper_______________________________6390b09fe8836040518263ffffffff1660e01b8152600401808273ffffffffffffffffffffffffffffffffffffffff16815260200191505060206040518083038186803b15801561031157600080fd5b505af4158015610325573d6000803e3d6000fd5b505050506040513d602081101561033b57600080fd5b8101908080519060200190929190505050905080600160008473ffffffffffffffffffffffffffffffffffffffff1673ffffffffffffffffffffffffffffffffffffffff16815260200190815260200160002060006101000a81548173ffffffffffffffffffffffffffffffffffffffff021916908373ffffffffffffffffffffffffffffffffffffffff16021790555060016000808373ffffffffffffffffffffffffffffffffffffffff1673ffffffffffffffffffffffffffffffffffffffff16815260200190815260200160002060006101000a81548160ff0219169083151502179055505b919050565b60003390506000610439896101bd565b90506000851161044857600080fd5b6000871161045557600080fd5b600087868161046057fe5b061461046b57600080fd5b600087868161047657fe5b049050600073__Shares________________________________6345f5673f848c878d8d888d8d6040518963ffffffff1660e01b8152600401808973ffffffffffffffffffffffffffffffffffffffff1681526020018881526020018773ffffffffffffffffffffffffffffffffffffffff1681526020018681526020018560ff1681526020018481526020018373ffffffffffffffffffffffffffffffffffffffff16815260200182151581526020019850505050505050505060206040518083038186803b15801561054957600080fd5b505af415801561055d573d6000803e3d6000fd5b505050506040513d602081101561057357600080fd5b810190808051906020019092919050505090508a73ffffffffffffffffffffffffffffffffffffffff166342842e0e85838d6040518463ffffffff1660e01b8152600401808473ffffffffffffffffffffffffffffffffffffffff1681526020018373ffffffffffffffffffffffffffffffffffffffff1681526020018281526020019350505050600060405180830381600087803b15801561061557600080fd5b505af1158015610629573d6000803e3d6000fd5b505050508273ffffffffffffffffffffffffffffffffffffffff16636b7ac257858c88856040518563ffffffff1660e01b8152600401808573ffffffffffffffffffffffffffffffffffffffff16815260200184815260200183151581526020018273ffffffffffffffffffffffffffffffffffffffff168152602001945050505050600060405180830381600087803b1580156106c657600080fd5b505af11580156106da573d6000803e3d6000fd5b505050505050505050505050505050565b60016020528060005260406000206000915054906101000a900473ffffffffffffffffffffffffffffffffffffffff168156fea2646970667358221220816f6354e516b9bdb4f99033eef98f6bb0abcef5b377521806e4c1036ba9df2864736f6c634300060c0033",
  "immutableReferences": {},
  "source": "// Nftfy\n// SPDX-License-Identifier: GPL-3.0-only\npragma solidity ^0.6.0;\n\nimport { IERC20 } from \"@openzeppelin/contracts/token/ERC20/IERC20.sol\";\nimport { IERC721 } from \"@openzeppelin/contracts/token/ERC721/IERC721.sol\";\n\nimport { Wrapper, ERC721Wrapper } from \"./Wrapper.sol\";\nimport { Shares, ERC721Shares } from \"./Shares.sol\";\n\ncontract Nftfy\n{\n\tmapping (IERC721 => bool) wraps;\n\tmapping (IERC721 => ERC721Wrapper) public wrappers;\n\n\tfunction ensureWrapper(IERC721 _target) public returns (ERC721Wrapper _wrapper)\n\t{\n\t\trequire(!wraps[_target]);\n\t\t_wrapper = wrappers[_target];\n\t\tif (_wrapper == ERC721Wrapper(0)) {\n\t\t\t_wrapper = Wrapper.create(_target);\n\t\t\twrappers[_target] = _wrapper;\n\t\t\twraps[_wrapper] = true;\n\t\t}\n\t\treturn _wrapper;\n\t}\n\n\tfunction securitize(IERC721 _target, uint256 _tokenId, uint256 _sharesCount, uint8 _decimals, uint256 _exitPrice, IERC20 _paymentToken, bool _remnant) public\n\t{\n\t\taddress _from = msg.sender;\n\t\tERC721Wrapper _wrapper = ensureWrapper(_target);\n\t\trequire(_exitPrice > 0);\n\t\trequire(_sharesCount > 0);\n\t\trequire(_exitPrice % _sharesCount == 0);\n\t\tuint256 _sharePrice = _exitPrice / _sharesCount;\n\t\tERC721Shares _shares = Shares.create(_wrapper, _tokenId, _from, _sharesCount, _decimals, _sharePrice, _paymentToken, _remnant);\n\t\t_target.safeTransferFrom(_from, address(_shares), _tokenId);\n\t\t_wrapper._insert(_from, _tokenId, _remnant, _shares);\n\t}\n}\n",
  "sourcePath": "/home/raugfer/Projects/Executed/nftfy/nftfy-core/contracts/Nftfy.sol",
  "compiler": {
    "name": "solc",
    "version": "0.6.12+commit.27d51765.Emscripten.clang"
  },
  "schemaVersion": "3.2.3",
  "updatedAt": "2020-08-09T15:45:41.547Z",
  "networkType": "ethereum",
  "devdoc": {
    "kind": "dev",
    "methods": {},
    "version": 1
  },
  "userdoc": {
    "kind": "user",
    "methods": {},
    "version": 1
  }
}